{
  "contractName": "Election",
  "abi": [
    {
      "inputs": [
        {
          "internalType": "address[]",
          "name": "tokens",
          "type": "address[]"
        },
        {
          "internalType": "address[]",
          "name": "groups",
          "type": "address[]"
        },
        {
          "internalType": "uint256[][]",
          "name": "_votes",
          "type": "uint256[][]"
        },
        {
          "internalType": "uint256[][]",
          "name": "order",
          "type": "uint256[][]"
        }
      ],
      "stateMutability": "nonpayable",
      "type": "constructor"
    },
    {
      "anonymous": false,
      "inputs": [
        {
          "indexed": true,
          "internalType": "address",
          "name": "token",
          "type": "address"
        },
        {
          "indexed": true,
          "internalType": "address",
          "name": "account",
          "type": "address"
        },
        {
          "indexed": true,
          "internalType": "address",
          "name": "group",
          "type": "address"
        },
        {
          "indexed": false,
          "internalType": "uint256",
          "name": "value",
          "type": "uint256"
        },
        {
          "indexed": false,
          "internalType": "uint256",
          "name": "units",
          "type": "uint256"
        }
      ],
      "name": "ValidatorGroupActiveVoteRevoked",
      "type": "event"
    },
    {
      "anonymous": false,
      "inputs": [
        {
          "indexed": true,
          "internalType": "address",
          "name": "token",
          "type": "address"
        },
        {
          "indexed": true,
          "internalType": "address",
          "name": "account",
          "type": "address"
        },
        {
          "indexed": true,
          "internalType": "address",
          "name": "group",
          "type": "address"
        },
        {
          "indexed": false,
          "internalType": "uint256",
          "name": "value",
          "type": "uint256"
        }
      ],
      "name": "ValidatorGroupPendingVoteRevoked",
      "type": "event"
    },
    {
      "anonymous": false,
      "inputs": [
        {
          "indexed": true,
          "internalType": "address",
          "name": "token",
          "type": "address"
        },
        {
          "indexed": true,
          "internalType": "address",
          "name": "account",
          "type": "address"
        },
        {
          "indexed": true,
          "internalType": "address",
          "name": "group",
          "type": "address"
        },
        {
          "indexed": false,
          "internalType": "uint256",
          "name": "value",
          "type": "uint256"
        },
        {
          "indexed": false,
          "internalType": "uint256",
          "name": "units",
          "type": "uint256"
        }
      ],
      "name": "ValidatorGroupVoteActivated",
      "type": "event"
    },
    {
      "anonymous": false,
      "inputs": [
        {
          "indexed": true,
          "internalType": "address",
          "name": "token",
          "type": "address"
        },
        {
          "indexed": true,
          "internalType": "address",
          "name": "account",
          "type": "address"
        },
        {
          "indexed": true,
          "internalType": "address",
          "name": "group",
          "type": "address"
        },
        {
          "indexed": false,
          "internalType": "uint256",
          "name": "value",
          "type": "uint256"
        }
      ],
      "name": "ValidatorGroupVoteCast",
      "type": "event"
    },
    {
      "inputs": [],
      "name": "maxNumGroupsVotedFor",
      "outputs": [
        {
          "internalType": "uint256",
          "name": "",
          "type": "uint256"
        }
      ],
      "stateMutability": "view",
      "type": "function",
      "constant": true
    },
    {
      "inputs": [
        {
          "internalType": "address",
          "name": "token",
          "type": "address"
        },
        {
          "internalType": "address",
          "name": "group",
          "type": "address"
        },
        {
          "internalType": "uint256",
          "name": "value",
          "type": "uint256"
        },
        {
          "internalType": "address",
          "name": "lesser",
          "type": "address"
        },
        {
          "internalType": "address",
          "name": "greater",
          "type": "address"
        }
      ],
      "name": "vote",
      "outputs": [
        {
          "internalType": "bool",
          "name": "",
          "type": "bool"
        }
      ],
      "stateMutability": "nonpayable",
      "type": "function"
    },
    {
      "inputs": [
        {
          "internalType": "address",
          "name": "token",
          "type": "address"
        },
        {
          "internalType": "address",
          "name": "group",
          "type": "address"
        }
      ],
      "name": "activate",
      "outputs": [
        {
          "internalType": "bool",
          "name": "",
          "type": "bool"
        }
      ],
      "stateMutability": "nonpayable",
      "type": "function"
    },
    {
      "inputs": [
        {
          "internalType": "address",
          "name": "token",
          "type": "address"
        },
        {
          "internalType": "address",
          "name": "account",
          "type": "address"
        },
        {
          "internalType": "address",
          "name": "group",
          "type": "address"
        }
      ],
      "name": "hasActivatablePendingVotes",
      "outputs": [
        {
          "internalType": "bool",
          "name": "",
          "type": "bool"
        }
      ],
      "stateMutability": "view",
      "type": "function",
      "constant": true
    },
    {
      "inputs": [
        {
          "internalType": "address",
          "name": "token",
          "type": "address"
        },
        {
          "internalType": "address",
          "name": "group",
          "type": "address"
        },
        {
          "internalType": "uint256",
          "name": "value",
          "type": "uint256"
        },
        {
          "internalType": "address",
          "name": "lesser",
          "type": "address"
        },
        {
          "internalType": "address",
          "name": "greater",
          "type": "address"
        },
        {
          "internalType": "uint256",
          "name": "index",
          "type": "uint256"
        }
      ],
      "name": "revokePending",
      "outputs": [
        {
          "internalType": "bool",
          "name": "",
          "type": "bool"
        }
      ],
      "stateMutability": "nonpayable",
      "type": "function"
    },
    {
      "inputs": [
        {
          "internalType": "address",
          "name": "token",
          "type": "address"
        },
        {
          "internalType": "address",
          "name": "group",
          "type": "address"
        },
        {
          "internalType": "address",
          "name": "lesser",
          "type": "address"
        },
        {
          "internalType": "address",
          "name": "greater",
          "type": "address"
        },
        {
          "internalType": "uint256",
          "name": "index",
          "type": "uint256"
        }
      ],
      "name": "revokeAllActive",
      "outputs": [
        {
          "internalType": "bool",
          "name": "",
          "type": "bool"
        }
      ],
      "stateMutability": "nonpayable",
      "type": "function"
    },
    {
      "inputs": [
        {
          "internalType": "address",
          "name": "token",
          "type": "address"
        },
        {
          "internalType": "address",
          "name": "group",
          "type": "address"
        },
        {
          "internalType": "uint256",
          "name": "value",
          "type": "uint256"
        },
        {
          "internalType": "address",
          "name": "lesser",
          "type": "address"
        },
        {
          "internalType": "address",
          "name": "greater",
          "type": "address"
        },
        {
          "internalType": "uint256",
          "name": "index",
          "type": "uint256"
        }
      ],
      "name": "revokeActive",
      "outputs": [
        {
          "internalType": "bool",
          "name": "",
          "type": "bool"
        }
      ],
      "stateMutability": "nonpayable",
      "type": "function"
    },
    {
      "inputs": [
        {
          "internalType": "address",
          "name": "token",
          "type": "address"
        },
        {
          "internalType": "address",
          "name": "account",
          "type": "address"
        }
      ],
      "name": "getTotalVotesByAccount",
      "outputs": [
        {
          "internalType": "uint256",
          "name": "",
          "type": "uint256"
        }
      ],
      "stateMutability": "view",
      "type": "function",
      "constant": true
    },
    {
      "inputs": [
        {
          "internalType": "address",
          "name": "token",
          "type": "address"
        },
        {
          "internalType": "address",
          "name": "group",
          "type": "address"
        },
        {
          "internalType": "address",
          "name": "account",
          "type": "address"
        }
      ],
      "name": "getPendingVotesForGroupByAccount",
      "outputs": [
        {
          "internalType": "uint256",
          "name": "",
          "type": "uint256"
        }
      ],
      "stateMutability": "view",
      "type": "function",
      "constant": true
    },
    {
      "inputs": [
        {
          "internalType": "address",
          "name": "token",
          "type": "address"
        },
        {
          "internalType": "address",
          "name": "group",
          "type": "address"
        },
        {
          "internalType": "address",
          "name": "account",
          "type": "address"
        }
      ],
      "name": "getActiveVotesForGroupByAccount",
      "outputs": [
        {
          "internalType": "uint256",
          "name": "",
          "type": "uint256"
        }
      ],
      "stateMutability": "view",
      "type": "function",
      "constant": true
    },
    {
      "inputs": [
        {
          "internalType": "address",
          "name": "token",
          "type": "address"
        },
        {
          "internalType": "address",
          "name": "group",
          "type": "address"
        },
        {
          "internalType": "address",
          "name": "account",
          "type": "address"
        }
      ],
      "name": "getTotalVotesForGroupByAccount",
      "outputs": [
        {
          "internalType": "uint256",
          "name": "",
          "type": "uint256"
        }
      ],
      "stateMutability": "view",
      "type": "function",
      "constant": true
    },
    {
      "inputs": [
        {
          "internalType": "address",
          "name": "token",
          "type": "address"
        },
        {
          "internalType": "address",
          "name": "group",
          "type": "address"
        },
        {
          "internalType": "address",
          "name": "account",
          "type": "address"
        }
      ],
      "name": "getActiveVoteUnitsForGroupByAccount",
      "outputs": [
        {
          "internalType": "uint256",
          "name": "",
          "type": "uint256"
        }
      ],
      "stateMutability": "view",
      "type": "function",
      "constant": true
    },
    {
      "inputs": [
        {
          "internalType": "address",
          "name": "token",
          "type": "address"
        },
        {
          "internalType": "address",
          "name": "group",
          "type": "address"
        }
      ],
      "name": "getActiveVoteUnitsForGroup",
      "outputs": [
        {
          "internalType": "uint256",
          "name": "",
          "type": "uint256"
        }
      ],
      "stateMutability": "view",
      "type": "function",
      "constant": true
    },
    {
      "inputs": [
        {
          "internalType": "address",
          "name": "token",
          "type": "address"
        },
        {
          "internalType": "address",
          "name": "group",
          "type": "address"
        }
      ],
      "name": "getTotalVotesForGroup",
      "outputs": [
        {
          "internalType": "uint256",
          "name": "",
          "type": "uint256"
        }
      ],
      "stateMutability": "view",
      "type": "function",
      "constant": true
    },
    {
      "inputs": [
        {
          "internalType": "address",
          "name": "token",
          "type": "address"
        },
        {
          "internalType": "address",
          "name": "group",
          "type": "address"
        }
      ],
      "name": "getActiveVotesForGroup",
      "outputs": [
        {
          "internalType": "uint256",
          "name": "",
          "type": "uint256"
        }
      ],
      "stateMutability": "view",
      "type": "function",
      "constant": true
    },
    {
      "inputs": [
        {
          "internalType": "address",
          "name": "token",
          "type": "address"
        },
        {
          "internalType": "address",
          "name": "group",
          "type": "address"
        }
      ],
      "name": "getPendingVotesForGroup",
      "outputs": [
        {
          "internalType": "uint256",
          "name": "",
          "type": "uint256"
        }
      ],
      "stateMutability": "view",
      "type": "function",
      "constant": true
    },
    {
      "inputs": [
        {
          "internalType": "address",
          "name": "token",
          "type": "address"
        },
        {
          "internalType": "address",
          "name": "group",
          "type": "address"
        }
      ],
      "name": "getGroupEligibility",
      "outputs": [
        {
          "internalType": "bool",
          "name": "",
          "type": "bool"
        }
      ],
      "stateMutability": "view",
      "type": "function",
      "constant": true
    },
    {
      "inputs": [
        {
          "internalType": "address",
          "name": "token",
          "type": "address"
        },
        {
          "internalType": "address",
          "name": "account",
          "type": "address"
        }
      ],
      "name": "getGroupsVotedForByAccount",
      "outputs": [
        {
          "internalType": "address[]",
          "name": "",
          "type": "address[]"
        }
      ],
      "stateMutability": "view",
      "type": "function",
      "constant": true
    },
    {
      "inputs": [
        {
          "internalType": "address",
          "name": "token",
          "type": "address"
        }
      ],
      "name": "getTotalVotes",
      "outputs": [
        {
          "internalType": "uint256",
          "name": "",
          "type": "uint256"
        }
      ],
      "stateMutability": "view",
      "type": "function",
      "constant": true
    },
    {
      "inputs": [
        {
          "internalType": "address",
          "name": "token",
          "type": "address"
        }
      ],
      "name": "getActiveVotes",
      "outputs": [
        {
          "internalType": "uint256",
          "name": "",
          "type": "uint256"
        }
      ],
      "stateMutability": "view",
      "type": "function",
      "constant": true
    },
    {
      "inputs": [
        {
          "internalType": "address",
          "name": "token",
          "type": "address"
        }
      ],
      "name": "getEligibleValidatorGroups",
      "outputs": [
        {
          "internalType": "address[]",
          "name": "",
          "type": "address[]"
        }
      ],
      "stateMutability": "view",
      "type": "function",
      "constant": true
    },
    {
      "inputs": [
        {
          "internalType": "address",
          "name": "token",
          "type": "address"
        }
      ],
      "name": "getTotalVotesForEligibleValidatorGroups",
      "outputs": [
        {
          "internalType": "address[]",
          "name": "groups",
          "type": "address[]"
        },
        {
          "internalType": "uint256[]",
          "name": "values",
          "type": "uint256[]"
        }
      ],
      "stateMutability": "view",
      "type": "function",
      "constant": true
    }
  ],
  "bytecode": "0x60806040523480156200001157600080fd5b506040516200573638038062005736833981810160405281019062000037919062000e31565b6001600081905550815184511462000086576040517f08c379a00000000000000000000000000000000000000000000000000000000081526004016200007d9062000fa6565b60405180910390fd5b8051845114620000cd576040517f08c379a0000000000000000000000000000000000000000000000000000000008152600401620000c4906200103e565b60405180910390fd5b60005b84518110156200060b576000858281518110620000f257620000f162001060565b5b602002602001015190506001600260000160008373ffffffffffffffffffffffffffffffffffffffff1673ffffffffffffffffffffffffffffffffffffffff16815260200190815260200160002060006101000a81548160ff02191690831515021790555080600260010160008373ffffffffffffffffffffffffffffffffffffffff1673ffffffffffffffffffffffffffffffffffffffff16815260200190815260200160002060006101000a81548173ffffffffffffffffffffffffffffffffffffffff021916908373ffffffffffffffffffffffffffffffffffffffff160217905550838281518110620001ee57620001ed62001060565b5b6020026020010151518551146200023c576040517f08c379a0000000000000000000000000000000000000000000000000000000008152600401620002339062001105565b60405180910390fd5b82828151811062000252576200025162001060565b5b602002602001015151855114620002a0576040517f08c379a000000000000000000000000000000000000000000000000000000000815260040162000297906200119d565b60405180910390fd5b60005b8551811015620005e657600086858581518110620002c657620002c562001060565b5b60200260200101518381518110620002e357620002e262001060565b5b602002602001015181518110620002ff57620002fe62001060565b5b602002602001015190506200035783823089888151811062000326576200032562001060565b5b6020026020010151868151811062000343576200034262001060565b5b60200260200101516200061660201b60201c565b5060008214156200045c57600460020160008473ffffffffffffffffffffffffffffffffffffffff1673ffffffffffffffffffffffffffffffffffffffff16815260200190815260200160002060000173__AddressSortedLinkedList_______________632dedbbf0909183898881518110620003da57620003d962001060565b5b60200260200101518681518110620003f757620003f662001060565b5b60200260200101516000806040518663ffffffff1660e01b815260040162000424959493929190620011e8565b60006040518083038186803b1580156200043d57600080fd5b505af415801562000452573d6000803e3d6000fd5b50505050620005c2565b600460020160008473ffffffffffffffffffffffffffffffffffffffff1673ffffffffffffffffffffffffffffffffffffffff16815260200190815260200160002060000173__AddressSortedLinkedList_______________632dedbbf0909183898881518110620004d457620004d362001060565b5b60200260200101518681518110620004f157620004f062001060565b5b60200260200101518b8a8a8151811062000510576200050f62001060565b5b60200260200101516200053360018a620007d960201b62001ece1790919060201c565b8151811062000547576200054662001060565b5b60200260200101518151811062000563576200056262001060565b5b602002602001015160006040518663ffffffff1660e01b81526004016200058f959493929190620011e8565b60006040518083038186803b158015620005a857600080fd5b505af4158015620005bd573d6000803e3d6000fd5b505050505b50620005de600182620007f160201b62001ee41790919060201c565b9050620002a3565b505062000603600182620007f160201b62001ee41790919060201c565b9050620000d0565b5050505050620013d4565b600080600460010160008773ffffffffffffffffffffffffffffffffffffffff1673ffffffffffffffffffffffffffffffffffffffff16815260200190815260200160002090506200067b838260000154620007f160201b62001ee41790919060201c565b81600001819055506000620006988787866200080960201b60201c565b905060008260010160008873ffffffffffffffffffffffffffffffffffffffff1673ffffffffffffffffffffffffffffffffffffffff1681526020019081526020016000209050620006fd858260000154620007f160201b62001ee41790919060201c565b816000018190555062000723828260010154620007f160201b62001ee41790919060201c565b816001018190555062000786828260020160008973ffffffffffffffffffffffffffffffffffffffff1673ffffffffffffffffffffffffffffffffffffffff16815260200190815260200160002054620007f160201b62001ee41790919060201c565b8160020160008873ffffffffffffffffffffffffffffffffffffffff1673ffffffffffffffffffffffffffffffffffffffff16815260200190815260200160002081905550819350505050949350505050565b60008183620007e9919062001274565b905092915050565b60008183620008019190620012af565b905092915050565b600080600460010160008673ffffffffffffffffffffffffffffffffffffffff1673ffffffffffffffffffffffffffffffffffffffff16815260200190815260200160002060010160008573ffffffffffffffffffffffffffffffffffffffff1673ffffffffffffffffffffffffffffffffffffffff168152602001908152602001600020600101541415620008c457620008bc68056bc75e2d631000008362000a0b60201b62001efa1790919060201c565b905062000a04565b62000a01600460010160008673ffffffffffffffffffffffffffffffffffffffff1673ffffffffffffffffffffffffffffffffffffffff16815260200190815260200160002060010160008573ffffffffffffffffffffffffffffffffffffffff1673ffffffffffffffffffffffffffffffffffffffff16815260200190815260200160002060000154620009ed600460010160008873ffffffffffffffffffffffffffffffffffffffff1673ffffffffffffffffffffffffffffffffffffffff16815260200190815260200160002060010160008773ffffffffffffffffffffffffffffffffffffffff1673ffffffffffffffffffffffffffffffffffffffff168152602001908152602001600020600101548562000a0b60201b62001efa1790919060201c565b62000a2360201b62001f101790919060201c565b90505b9392505050565b6000818362000a1b91906200130c565b905092915050565b6000818362000a3391906200139c565b905092915050565b6000604051905090565b600080fd5b600080fd5b600080fd5b6000601f19601f8301169050919050565b7f4e487b7100000000000000000000000000000000000000000000000000000000600052604160045260246000fd5b62000a9f8262000a54565b810181811067ffffffffffffffff8211171562000ac15762000ac062000a65565b5b80604052505050565b600062000ad662000a3b565b905062000ae4828262000a94565b919050565b600067ffffffffffffffff82111562000b075762000b0662000a65565b5b602082029050602081019050919050565b600080fd5b600073ffffffffffffffffffffffffffffffffffffffff82169050919050565b600062000b4a8262000b1d565b9050919050565b62000b5c8162000b3d565b811462000b6857600080fd5b50565b60008151905062000b7c8162000b51565b92915050565b600062000b9962000b938462000ae9565b62000aca565b9050808382526020820190506020840283018581111562000bbf5762000bbe62000b18565b5b835b8181101562000bec578062000bd7888262000b6b565b84526020840193505060208101905062000bc1565b5050509392505050565b600082601f83011262000c0e5762000c0d62000a4f565b5b815162000c2084826020860162000b82565b91505092915050565b600067ffffffffffffffff82111562000c475762000c4662000a65565b5b602082029050602081019050919050565b600067ffffffffffffffff82111562000c765762000c7562000a65565b5b602082029050602081019050919050565b6000819050919050565b62000c9c8162000c87565b811462000ca857600080fd5b50565b60008151905062000cbc8162000c91565b92915050565b600062000cd962000cd38462000c58565b62000aca565b9050808382526020820190506020840283018581111562000cff5762000cfe62000b18565b5b835b8181101562000d2c578062000d17888262000cab565b84526020840193505060208101905062000d01565b5050509392505050565b600082601f83011262000d4e5762000d4d62000a4f565b5b815162000d6084826020860162000cc2565b91505092915050565b600062000d8062000d7a8462000c29565b62000aca565b9050808382526020820190506020840283018581111562000da65762000da562000b18565b5b835b8181101562000df457805167ffffffffffffffff81111562000dcf5762000dce62000a4f565b5b80860162000dde898262000d36565b8552602085019450505060208101905062000da8565b5050509392505050565b600082601f83011262000e165762000e1562000a4f565b5b815162000e2884826020860162000d69565b91505092915050565b6000806000806080858703121562000e4e5762000e4d62000a45565b5b600085015167ffffffffffffffff81111562000e6f5762000e6e62000a4a565b5b62000e7d8782880162000bf6565b945050602085015167ffffffffffffffff81111562000ea15762000ea062000a4a565b5b62000eaf8782880162000bf6565b935050604085015167ffffffffffffffff81111562000ed35762000ed262000a4a565b5b62000ee18782880162000dfe565b925050606085015167ffffffffffffffff81111562000f055762000f0462000a4a565b5b62000f138782880162000dfe565b91505092959194509250565b600082825260208201905092915050565b7f566f746573203173742064696d2073686f756c642062652073616d652061732060008201527f746f6b656e730000000000000000000000000000000000000000000000000000602082015250565b600062000f8e60268362000f1f565b915062000f9b8262000f30565b604082019050919050565b6000602082019050818103600083015262000fc18162000f7f565b9050919050565b7f4f7264657220326e642064696d2073686f756c642062652073616d652061732060008201527f746f6b656e730000000000000000000000000000000000000000000000000000602082015250565b60006200102660268362000f1f565b9150620010338262000fc8565b604082019050919050565b60006020820190508181036000830152620010598162001017565b9050919050565b7f4e487b7100000000000000000000000000000000000000000000000000000000600052603260045260246000fd5b7f566f74657320326e642064696d2073686f756c642062652073616d652061732060008201527f67726f7570730000000000000000000000000000000000000000000000000000602082015250565b6000620010ed60268362000f1f565b9150620010fa826200108f565b604082019050919050565b600060208201905081810360008301526200112081620010de565b9050919050565b7f4f7264657220326e642064696d2073686f756c642062652073616d652061732060008201527f67726f7570730000000000000000000000000000000000000000000000000000602082015250565b60006200118560268362000f1f565b9150620011928262001127565b604082019050919050565b60006020820190508181036000830152620011b88162001176565b9050919050565b8082525050565b620011d18162000b3d565b82525050565b620011e28162000c87565b82525050565b600060a082019050620011ff6000830188620011bf565b6200120e6020830187620011c6565b6200121d6040830186620011d7565b6200122c6060830185620011c6565b6200123b6080830184620011c6565b9695505050505050565b7f4e487b7100000000000000000000000000000000000000000000000000000000600052601160045260246000fd5b6000620012818262000c87565b91506200128e8362000c87565b925082821015620012a457620012a362001245565b5b828203905092915050565b6000620012bc8262000c87565b9150620012c98362000c87565b9250827fffffffffffffffffffffffffffffffffffffffffffffffffffffffffffffffff0382111562001301576200130062001245565b5b828201905092915050565b6000620013198262000c87565b9150620013268362000c87565b9250817fffffffffffffffffffffffffffffffffffffffffffffffffffffffffffffffff048311821515161562001362576200136162001245565b5b828202905092915050565b7f4e487b7100000000000000000000000000000000000000000000000000000000600052601260045260246000fd5b6000620013a98262000c87565b9150620013b68362000c87565b925082620013c957620013c86200136d565b5b828204905092915050565b61435280620013e46000396000f3fe608060405234801561001057600080fd5b50600436106101425760003560e01c80639555c4db116100b8578063a9cd7e021161007c578063a9cd7e0214610448578063ac839d6914610478578063ad14779114610496578063c16bf19b146104c6578063cbd95fbd146104f6578063ded4c8711461052657610142565b80639555c4db146103575780639a9b161c146103875780639b4155e7146103b75780639d3c259a146103e7578063a642859a1461041757610142565b8063608d62ca1161010a578063608d62ca146102375780636203a79b1461026757806365d14ef6146102975780637257f7be146102c7578063816c94eb146102f75780638b45baf61461032757610142565b80630239ad81146101475780630552deb1146101775780631b6236af146101a757806333ebd52f146101d757806340e29e1714610207575b600080fd5b610161600480360381019061015c919061338d565b610556565b60405161016e91906133e6565b60405180910390f35b610191600480360381019061018c919061342d565b6105e6565b60405161019e91906134c3565b60405180910390f35b6101c160048036038101906101bc919061338d565b6106fc565b6040516101ce91906133e6565b60405180910390f35b6101f160048036038101906101ec91906134de565b610877565b6040516101fe91906134c3565b60405180910390f35b610221600480360381019061021c919061356b565b610978565b60405161022e9190613656565b60405180910390f35b610251600480360381019061024c9190613678565b610a44565b60405161025e91906133e6565b60405180910390f35b610281600480360381019061027c91906136cb565b610b12565b60405161028e91906134c3565b60405180910390f35b6102b160048036038101906102ac919061338d565b611089565b6040516102be91906133e6565b60405180910390f35b6102e160048036038101906102dc919061338d565b611119565b6040516102ee91906134c3565b60405180910390f35b610311600480360381019061030c9190613678565b6111e3565b60405161031e91906134c3565b60405180910390f35b610341600480360381019061033c9190613678565b61135d565b60405161034e91906133e6565b60405180910390f35b610371600480360381019061036c919061338d565b61139a565b60405161037e91906134c3565b60405180910390f35b6103a1600480360381019061039c91906134de565b61149a565b6040516103ae91906134c3565b60405180910390f35b6103d160048036038101906103cc919061338d565b611896565b6040516103de91906133e6565b60405180910390f35b61040160048036038101906103fc919061356b565b611926565b60405161040e91906133e6565b60405180910390f35b610431600480360381019061042c919061356b565b6119cc565b60405161043f929190613804565b60405180910390f35b610462600480360381019061045d919061338d565b611a9b565b60405161046f91906133e6565b60405180910390f35b610480611bc2565b60405161048d91906133e6565b60405180910390f35b6104b060048036038101906104ab919061356b565b611bc8565b6040516104bd91906133e6565b60405180910390f35b6104e060048036038101906104db9190613678565b611c17565b6040516104ed91906133e6565b60405180910390f35b610510600480360381019061050b9190613678565b611ce8565b60405161051d91906133e6565b60405180910390f35b610540600480360381019061053b919061338d565b611dc0565b60405161054d9190613656565b60405180910390f35b6000600460010160008473ffffffffffffffffffffffffffffffffffffffff1673ffffffffffffffffffffffffffffffffffffffff16815260200190815260200160002060010160008373ffffffffffffffffffffffffffffffffffffffff1673ffffffffffffffffffffffffffffffffffffffff16815260200190815260200160002060000154905092915050565b60006002600054141561062e576040517f08c379a000000000000000000000000000000000000000000000000000000000815260040161062590613898565b60405180910390fd5b6002600081905550600260000160008773ffffffffffffffffffffffffffffffffffffffff1673ffffffffffffffffffffffffffffffffffffffff16815260200190815260200160002060009054906101000a900460ff166106c5576040517f08c379a00000000000000000000000000000000000000000000000000000000081526004016106bc90613904565b60405180910390fd5b600033905060006106d7888884611ce8565b90506106e7888883898989611f26565b92505050600160008190555095945050505050565b600080600090506000600460030160008573ffffffffffffffffffffffffffffffffffffffff1673ffffffffffffffffffffffffffffffffffffffff16815260200190815260200160002060008673ffffffffffffffffffffffffffffffffffffffff1673ffffffffffffffffffffffffffffffffffffffff16815260200190815260200160002080548060200260200160405190810160405280929190818152602001828054801561080457602002820191906000526020600020905b8160009054906101000a900473ffffffffffffffffffffffffffffffffffffffff1673ffffffffffffffffffffffffffffffffffffffff16815260200190600101908083116107ba575b5050505050905060005b815181101561086b5761084e61083f8784848151811061083157610830613924565b5b60200260200101518861135d565b84611ee490919063ffffffff16565b9250610864600182611ee490919063ffffffff16565b905061080e565b50819250505092915050565b6000600260005414156108bf576040517f08c379a00000000000000000000000000000000000000000000000000000000081526004016108b690613898565b60405180910390fd5b6002600081905550600260000160008873ffffffffffffffffffffffffffffffffffffffff1673ffffffffffffffffffffffffffffffffffffffff16815260200190815260200160002060009054906101000a900460ff16610956576040517f08c379a000000000000000000000000000000000000000000000000000000000815260040161094d90613904565b60405180910390fd5b610964878787878787611f26565b905060016000819055509695505050505050565b6060600460020160008373ffffffffffffffffffffffffffffffffffffffff1673ffffffffffffffffffffffffffffffffffffffff16815260200190815260200160002060000173__AddressSortedLinkedList_______________633a72e80290916040518263ffffffff1660e01b81526004016109f7919061395a565b600060405180830381865af4158015610a14573d6000803e3d6000fd5b505050506040513d6000823e3d601f19601f82011682018060405250810190610a3d9190613ae3565b9050919050565b6000600460010160008573ffffffffffffffffffffffffffffffffffffffff1673ffffffffffffffffffffffffffffffffffffffff16815260200190815260200160002060010160008473ffffffffffffffffffffffffffffffffffffffff1673ffffffffffffffffffffffffffffffffffffffff16815260200190815260200160002060020160008373ffffffffffffffffffffffffffffffffffffffff1673ffffffffffffffffffffffffffffffffffffffff1681526020019081526020016000205490509392505050565b600060026000541415610b5a576040517f08c379a0000000000000000000000000000000000000000000000000000000008152600401610b5190613898565b60405180910390fd5b6002600081905550600260000160008773ffffffffffffffffffffffffffffffffffffffff1673ffffffffffffffffffffffffffffffffffffffff16815260200190815260200160002060009054906101000a900460ff16610bf1576040517f08c379a0000000000000000000000000000000000000000000000000000000008152600401610be890613904565b60405180910390fd5b600460020160008773ffffffffffffffffffffffffffffffffffffffff1673ffffffffffffffffffffffffffffffffffffffff16815260200190815260200160002060000173__AddressSortedLinkedList_______________6302f130289091876040518363ffffffff1660e01b8152600401610c70929190613b3b565b602060405180830381865af4158015610c8d573d6000803e3d6000fd5b505050506040513d601f19601f82011682018060405250810190610cb19190613b90565b610cf0576040517f08c379a0000000000000000000000000000000000000000000000000000000008152600401610ce790613c09565b60405180910390fd5b83600010610d33576040517f08c379a0000000000000000000000000000000000000000000000000000000008152600401610d2a90613c75565b60405180910390fd5b6000339050600080600460030160008473ffffffffffffffffffffffffffffffffffffffff1673ffffffffffffffffffffffffffffffffffffffff16815260200190815260200160002060008a73ffffffffffffffffffffffffffffffffffffffff1673ffffffffffffffffffffffffffffffffffffffff168152602001908152602001600020905060005b8180549050811015610e5c578280610e3f57508873ffffffffffffffffffffffffffffffffffffffff16828281548110610dfc57610dfb613924565b5b9060005260206000200160009054906101000a900473ffffffffffffffffffffffffffffffffffffffff1673ffffffffffffffffffffffffffffffffffffffff16145b9250610e55600182611ee490919063ffffffff16565b9050610dbf565b5081610f0d57600854818054905010610eaa576040517f08c379a0000000000000000000000000000000000000000000000000000000008152600401610ea190613ce1565b60405180910390fd5b80889080600181540180825580915050600190039060005260206000200160009091909190916101000a81548173ffffffffffffffffffffffffffffffffffffffff021916908373ffffffffffffffffffffffffffffffffffffffff1602179055505b610f198989858a612243565b610f268989898989612384565b600260010160008a73ffffffffffffffffffffffffffffffffffffffff1673ffffffffffffffffffffffffffffffffffffffff16815260200190815260200160002060009054906101000a900473ffffffffffffffffffffffffffffffffffffffff1673ffffffffffffffffffffffffffffffffffffffff166318a4ff8c84896040518363ffffffff1660e01b8152600401610fc3929190613d10565b600060405180830381600087803b158015610fdd57600080fd5b505af1158015610ff1573d6000803e3d6000fd5b505050508773ffffffffffffffffffffffffffffffffffffffff168373ffffffffffffffffffffffffffffffffffffffff168a73ffffffffffffffffffffffffffffffffffffffff167f88b29461009060b947c4490aae1ac82de3db0192040c568a1f0157172960c09e8a60405161106991906133e6565b60405180910390a460019350505050600160008190555095945050505050565b6000600460010160008473ffffffffffffffffffffffffffffffffffffffff1673ffffffffffffffffffffffffffffffffffffffff16815260200190815260200160002060010160008373ffffffffffffffffffffffffffffffffffffffff1673ffffffffffffffffffffffffffffffffffffffff16815260200190815260200160002060010154905092915050565b6000600460020160008473ffffffffffffffffffffffffffffffffffffffff1673ffffffffffffffffffffffffffffffffffffffff16815260200190815260200160002060000173__AddressSortedLinkedList_______________6302f130289091846040518363ffffffff1660e01b815260040161119a929190613b3b565b602060405180830381865af41580156111b7573d6000803e3d6000fd5b505050506040513d601f19601f820116820180604052508101906111db9190613b90565b905092915050565b6000600260000160008573ffffffffffffffffffffffffffffffffffffffff1673ffffffffffffffffffffffffffffffffffffffff16815260200190815260200160002060009054906101000a900460ff16611274576040517f08c379a000000000000000000000000000000000000000000000000000000000815260040161126b90613904565b60405180910390fd5b6000600460000160008673ffffffffffffffffffffffffffffffffffffffff1673ffffffffffffffffffffffffffffffffffffffff16815260200190815260200160002060010160008473ffffffffffffffffffffffffffffffffffffffff1673ffffffffffffffffffffffffffffffffffffffff16815260200190815260200160002060010160008573ffffffffffffffffffffffffffffffffffffffff1673ffffffffffffffffffffffffffffffffffffffff16815260200190815260200160002090506001548160010154108015611353575060008160000154115b9150509392505050565b60008061136b858585611c17565b9050600061137a868686611ce8565b905061138f8183611ee490919063ffffffff16565b925050509392505050565b6000600260005414156113e2576040517f08c379a00000000000000000000000000000000000000000000000000000000081526004016113d990613898565b60405180910390fd5b6002600081905550600260000160008473ffffffffffffffffffffffffffffffffffffffff1673ffffffffffffffffffffffffffffffffffffffff16815260200190815260200160002060009054906101000a900460ff16611479576040517f08c379a000000000000000000000000000000000000000000000000000000000815260040161147090613904565b60405180910390fd5b6000339050611489848483612517565b915050600160008190555092915050565b6000600260005414156114e2576040517f08c379a00000000000000000000000000000000000000000000000000000000081526004016114d990613898565b60405180910390fd5b6002600081905550600260000160008873ffffffffffffffffffffffffffffffffffffffff1673ffffffffffffffffffffffffffffffffffffffff16815260200190815260200160002060009054906101000a900460ff16611579576040517f08c379a000000000000000000000000000000000000000000000000000000000815260040161157090613904565b60405180910390fd5b600073ffffffffffffffffffffffffffffffffffffffff168673ffffffffffffffffffffffffffffffffffffffff1614156115e9576040517f08c379a00000000000000000000000000000000000000000000000000000000081526004016115e090613d85565b60405180910390fd5b600033905085600010611631576040517f08c379a000000000000000000000000000000000000000000000000000000000815260040161162890613c75565b60405180910390fd5b61163c888883611c17565b86111561167e576040517f08c379a000000000000000000000000000000000000000000000000000000000815260040161167590613e17565b60405180910390fd5b61168a8888838961271a565b6116978888888888612868565b600260010160008973ffffffffffffffffffffffffffffffffffffffff1673ffffffffffffffffffffffffffffffffffffffff16815260200190815260200160002060009054906101000a900473ffffffffffffffffffffffffffffffffffffffff1673ffffffffffffffffffffffffffffffffffffffff16636edf77a582886040518363ffffffff1660e01b8152600401611734929190613d10565b600060405180830381600087803b15801561174e57600080fd5b505af1158015611762573d6000803e3d6000fd5b50505050600061177389898461135d565b141561180357611802600460030160008373ffffffffffffffffffffffffffffffffffffffff1673ffffffffffffffffffffffffffffffffffffffff16815260200190815260200160002060008a73ffffffffffffffffffffffffffffffffffffffff1673ffffffffffffffffffffffffffffffffffffffff1681526020019081526020016000208885612ac1565b5b8673ffffffffffffffffffffffffffffffffffffffff168173ffffffffffffffffffffffffffffffffffffffff168973ffffffffffffffffffffffffffffffffffffffff167f48366907a33dedab9c74e709e30cf1f429ea1bc3c3924aff86cb2d1328c31c2c8960405161187791906133e6565b60405180910390a4600191505060016000819055509695505050505050565b6000600460000160008473ffffffffffffffffffffffffffffffffffffffff1673ffffffffffffffffffffffffffffffffffffffff16815260200190815260200160002060010160008373ffffffffffffffffffffffffffffffffffffffff1673ffffffffffffffffffffffffffffffffffffffff16815260200190815260200160002060000154905092915050565b60006119c5600460000160008473ffffffffffffffffffffffffffffffffffffffff1673ffffffffffffffffffffffffffffffffffffffff16815260200190815260200160002060000154600460010160008573ffffffffffffffffffffffffffffffffffffffff1673ffffffffffffffffffffffffffffffffffffffff16815260200190815260200160002060000154611ee490919063ffffffff16565b9050919050565b606080600460020160008473ffffffffffffffffffffffffffffffffffffffff1673ffffffffffffffffffffffffffffffffffffffff16815260200190815260200160002060000173__AddressSortedLinkedList_______________6369b317e390916040518263ffffffff1660e01b8152600401611a4c919061395a565b600060405180830381865af4158015611a69573d6000803e3d6000fd5b505050506040513d6000823e3d601f19601f82011682018060405250810190611a929190613f0f565b91509150915091565b6000611bba600460010160008573ffffffffffffffffffffffffffffffffffffffff1673ffffffffffffffffffffffffffffffffffffffff16815260200190815260200160002060010160008473ffffffffffffffffffffffffffffffffffffffff1673ffffffffffffffffffffffffffffffffffffffff16815260200190815260200160002060000154600460000160008673ffffffffffffffffffffffffffffffffffffffff1673ffffffffffffffffffffffffffffffffffffffff16815260200190815260200160002060010160008573ffffffffffffffffffffffffffffffffffffffff1673ffffffffffffffffffffffffffffffffffffffff16815260200190815260200160002060000154611ee490919063ffffffff16565b905092915050565b60085481565b6000600460010160008373ffffffffffffffffffffffffffffffffffffffff1673ffffffffffffffffffffffffffffffffffffffff168152602001908152602001600020600001549050919050565b6000600460000160008573ffffffffffffffffffffffffffffffffffffffff1673ffffffffffffffffffffffffffffffffffffffff16815260200190815260200160002060010160008473ffffffffffffffffffffffffffffffffffffffff1673ffffffffffffffffffffffffffffffffffffffff16815260200190815260200160002060010160008373ffffffffffffffffffffffffffffffffffffffff1673ffffffffffffffffffffffffffffffffffffffff1681526020019081526020016000206000015490509392505050565b6000611db78484600460010160008873ffffffffffffffffffffffffffffffffffffffff1673ffffffffffffffffffffffffffffffffffffffff16815260200190815260200160002060010160008773ffffffffffffffffffffffffffffffffffffffff1673ffffffffffffffffffffffffffffffffffffffff16815260200190815260200160002060020160008673ffffffffffffffffffffffffffffffffffffffff1673ffffffffffffffffffffffffffffffffffffffff16815260200190815260200160002054612bc0565b90509392505050565b6060600460030160008373ffffffffffffffffffffffffffffffffffffffff1673ffffffffffffffffffffffffffffffffffffffff16815260200190815260200160002060008473ffffffffffffffffffffffffffffffffffffffff1673ffffffffffffffffffffffffffffffffffffffff168152602001908152602001600020805480602002602001604051908101604052809291908181526020018280548015611ec157602002820191906000526020600020905b8160009054906101000a900473ffffffffffffffffffffffffffffffffffffffff1673ffffffffffffffffffffffffffffffffffffffff1681526020019060010190808311611e77575b5050505050905092915050565b60008183611edc9190613fb6565b905092915050565b60008183611ef29190613fea565b905092915050565b60008183611f089190614040565b905092915050565b60008183611f1e91906140c9565b905092915050565b60008073ffffffffffffffffffffffffffffffffffffffff168673ffffffffffffffffffffffffffffffffffffffff161415611f97576040517f08c379a0000000000000000000000000000000000000000000000000000000008152600401611f8e90613d85565b60405180910390fd5b600033905085600010611fdf576040517f08c379a0000000000000000000000000000000000000000000000000000000008152600401611fd690613c75565b60405180910390fd5b611fea888883611ce8565b86111561202c576040517f08c379a00000000000000000000000000000000000000000000000000000000081526004016120239061416c565b60405180910390fd5b600061203a8989848a612d91565b90506120498989898989612868565b600260010160008a73ffffffffffffffffffffffffffffffffffffffff1673ffffffffffffffffffffffffffffffffffffffff16815260200190815260200160002060009054906101000a900473ffffffffffffffffffffffffffffffffffffffff1673ffffffffffffffffffffffffffffffffffffffff16636edf77a583896040518363ffffffff1660e01b81526004016120e6929190613d10565b600060405180830381600087803b15801561210057600080fd5b505af1158015612114573d6000803e3d6000fd5b5050505060006121258a8a8561135d565b14156121b5576121b4600460030160008473ffffffffffffffffffffffffffffffffffffffff1673ffffffffffffffffffffffffffffffffffffffff16815260200190815260200160002060008b73ffffffffffffffffffffffffffffffffffffffff1673ffffffffffffffffffffffffffffffffffffffff1681526020019081526020016000208986612ac1565b5b8773ffffffffffffffffffffffffffffffffffffffff168273ffffffffffffffffffffffffffffffffffffffff168a73ffffffffffffffffffffffffffffffffffffffff167f1bd038ba7a4dd180f83ce87fe5646ef5b752368f6808caf3c70452e3635fc78c8a8560405161222b92919061418c565b60405180910390a46001925050509695505050505050565b6000600460000160008673ffffffffffffffffffffffffffffffffffffffff1673ffffffffffffffffffffffffffffffffffffffff16815260200190815260200160002090506122a0828260000154611ee490919063ffffffff16565b816000018190555060008160010160008673ffffffffffffffffffffffffffffffffffffffff1673ffffffffffffffffffffffffffffffffffffffff1681526020019081526020016000209050612304838260000154611ee490919063ffffffff16565b816000018190555060008160010160008673ffffffffffffffffffffffffffffffffffffffff1673ffffffffffffffffffffffffffffffffffffffff1681526020019081526020016000209050612368848260000154611ee490919063ffffffff16565b8160000181905550600154816001018190555050505050505050565b600061245884600460020160008973ffffffffffffffffffffffffffffffffffffffff1673ffffffffffffffffffffffffffffffffffffffff16815260200190815260200160002060000173__AddressSortedLinkedList_______________63e0fe44b39091896040518363ffffffff1660e01b8152600401612409929190613b3b565b602060405180830381865af4158015612426573d6000803e3d6000fd5b505050506040513d601f19601f8201168201806040525081019061244a91906141b5565b611ee490919063ffffffff16565b9050600460020160008773ffffffffffffffffffffffffffffffffffffffff1673ffffffffffffffffffffffffffffffffffffffff16815260200190815260200160002060000173__AddressSortedLinkedList_______________63cab455ae9091878487876040518663ffffffff1660e01b81526004016124df9594939291906141f1565b60006040518083038186803b1580156124f757600080fd5b505af415801561250b573d6000803e3d6000fd5b50505050505050505050565b600080600460000160008673ffffffffffffffffffffffffffffffffffffffff1673ffffffffffffffffffffffffffffffffffffffff16815260200190815260200160002060010160008573ffffffffffffffffffffffffffffffffffffffff1673ffffffffffffffffffffffffffffffffffffffff16815260200190815260200160002060010160008473ffffffffffffffffffffffffffffffffffffffff1673ffffffffffffffffffffffffffffffffffffffff1681526020019081526020016000209050600154816001015410612626576040517f08c379a000000000000000000000000000000000000000000000000000000000815260040161261d90614290565b60405180910390fd5b60008160000154905060008111612672576040517f08c379a000000000000000000000000000000000000000000000000000000000815260040161266990613c75565b60405180910390fd5b61267e8686868461271a565b600061268c87878785612f91565b90508573ffffffffffffffffffffffffffffffffffffffff168573ffffffffffffffffffffffffffffffffffffffff168873ffffffffffffffffffffffffffffffffffffffff167f73fe12046ae22c6368f248b4cf5edd2f92571affd0e2057378a08e256a56fb01858560405161270492919061418c565b60405180910390a4600193505050509392505050565b6000600460000160008673ffffffffffffffffffffffffffffffffffffffff1673ffffffffffffffffffffffffffffffffffffffff1681526020019081526020016000209050612777828260000154611ece90919063ffffffff16565b816000018190555060008160010160008673ffffffffffffffffffffffffffffffffffffffff1673ffffffffffffffffffffffffffffffffffffffff16815260200190815260200160002090506127db838260000154611ece90919063ffffffff16565b816000018190555060008160010160008673ffffffffffffffffffffffffffffffffffffffff1673ffffffffffffffffffffffffffffffffffffffff168152602001908152602001600020905061283f848260000154611ece90919063ffffffff16565b816000018190555060008160000154141561285f57600081600101819055505b50505050505050565b600460020160008673ffffffffffffffffffffffffffffffffffffffff1673ffffffffffffffffffffffffffffffffffffffff16815260200190815260200160002060000173__AddressSortedLinkedList_______________6302f130289091866040518363ffffffff1660e01b81526004016128e7929190613b3b565b602060405180830381865af4158015612904573d6000803e3d6000fd5b505050506040513d601f19601f820116820180604052508101906129289190613b90565b15612aba576000612a0184600460020160008973ffffffffffffffffffffffffffffffffffffffff1673ffffffffffffffffffffffffffffffffffffffff16815260200190815260200160002060000173__AddressSortedLinkedList_______________63e0fe44b39091896040518363ffffffff1660e01b81526004016129b2929190613b3b565b602060405180830381865af41580156129cf573d6000803e3d6000fd5b505050506040513d601f19601f820116820180604052508101906129f391906141b5565b611ece90919063ffffffff16565b9050600460020160008773ffffffffffffffffffffffffffffffffffffffff1673ffffffffffffffffffffffffffffffffffffffff16815260200190815260200160002060000173__AddressSortedLinkedList_______________63cab455ae9091878487876040518663ffffffff1660e01b8152600401612a889594939291906141f1565b60006040518083038186803b158015612aa057600080fd5b505af4158015612ab4573d6000803e3d6000fd5b50505050505b5050505050565b828054905081108015612b3c57508173ffffffffffffffffffffffffffffffffffffffff16838281548110612af957612af8613924565b5b9060005260206000200160009054906101000a900473ffffffffffffffffffffffffffffffffffffffff1673ffffffffffffffffffffffffffffffffffffffff16145b612b7b576040517f08c379a0000000000000000000000000000000000000000000000000000000008152600401612b72906142fc565b60405180910390fd5b828181548110612b8e57612b8d613924565b5b9060005260206000200160006101000a81549073ffffffffffffffffffffffffffffffffffffffff0219169055505050565b600080600460010160008673ffffffffffffffffffffffffffffffffffffffff1673ffffffffffffffffffffffffffffffffffffffff16815260200190815260200160002060010160008573ffffffffffffffffffffffffffffffffffffffff1673ffffffffffffffffffffffffffffffffffffffff168152602001908152602001600020600101541415612c585760009050612d8a565b612d87600460010160008673ffffffffffffffffffffffffffffffffffffffff1673ffffffffffffffffffffffffffffffffffffffff16815260200190815260200160002060010160008573ffffffffffffffffffffffffffffffffffffffff1673ffffffffffffffffffffffffffffffffffffffff16815260200190815260200160002060010154612d79600460010160008873ffffffffffffffffffffffffffffffffffffffff1673ffffffffffffffffffffffffffffffffffffffff16815260200190815260200160002060010160008773ffffffffffffffffffffffffffffffffffffffff1673ffffffffffffffffffffffffffffffffffffffff1681526020019081526020016000206000015485611efa90919063ffffffff16565b611f1090919063ffffffff16565b90505b9392505050565b600080600460010160008773ffffffffffffffffffffffffffffffffffffffff1673ffffffffffffffffffffffffffffffffffffffff1681526020019081526020016000209050612def838260000154611ece90919063ffffffff16565b8160000181905550600080612e05888888611ce8565b905060008360010160008973ffffffffffffffffffffffffffffffffffffffff1673ffffffffffffffffffffffffffffffffffffffff168152602001908152602001600020905085821415612e9d578060020160008873ffffffffffffffffffffffffffffffffffffffff1673ffffffffffffffffffffffffffffffffffffffff168152602001908152602001600020549250612eab565b612ea8898988613130565b92505b612ec2868260000154611ece90919063ffffffff16565b8160000181905550612ee1838260010154611ece90919063ffffffff16565b8160010181905550612f3d838260020160008a73ffffffffffffffffffffffffffffffffffffffff1673ffffffffffffffffffffffffffffffffffffffff16815260200190815260200160002054611ece90919063ffffffff16565b8160020160008973ffffffffffffffffffffffffffffffffffffffff1673ffffffffffffffffffffffffffffffffffffffff1681526020019081526020016000208190555082945050505050949350505050565b600080600460010160008773ffffffffffffffffffffffffffffffffffffffff1673ffffffffffffffffffffffffffffffffffffffff1681526020019081526020016000209050612fef838260000154611ee490919063ffffffff16565b81600001819055506000613004878786613130565b905060008260010160008873ffffffffffffffffffffffffffffffffffffffff1673ffffffffffffffffffffffffffffffffffffffff1681526020019081526020016000209050613062858260000154611ee490919063ffffffff16565b8160000181905550613081828260010154611ee490919063ffffffff16565b81600101819055506130dd828260020160008973ffffffffffffffffffffffffffffffffffffffff1673ffffffffffffffffffffffffffffffffffffffff16815260200190815260200160002054611ee490919063ffffffff16565b8160020160008873ffffffffffffffffffffffffffffffffffffffff1673ffffffffffffffffffffffffffffffffffffffff16815260200190815260200160002081905550819350505050949350505050565b600080600460010160008673ffffffffffffffffffffffffffffffffffffffff1673ffffffffffffffffffffffffffffffffffffffff16815260200190815260200160002060010160008573ffffffffffffffffffffffffffffffffffffffff1673ffffffffffffffffffffffffffffffffffffffff1681526020019081526020016000206001015414156131e2576131db68056bc75e2d6310000083611efa90919063ffffffff16565b9050613314565b613311600460010160008673ffffffffffffffffffffffffffffffffffffffff1673ffffffffffffffffffffffffffffffffffffffff16815260200190815260200160002060010160008573ffffffffffffffffffffffffffffffffffffffff1673ffffffffffffffffffffffffffffffffffffffff16815260200190815260200160002060000154613303600460010160008873ffffffffffffffffffffffffffffffffffffffff1673ffffffffffffffffffffffffffffffffffffffff16815260200190815260200160002060010160008773ffffffffffffffffffffffffffffffffffffffff1673ffffffffffffffffffffffffffffffffffffffff1681526020019081526020016000206001015485611efa90919063ffffffff16565b611f1090919063ffffffff16565b90505b9392505050565b6000604051905090565b600080fd5b600080fd5b600073ffffffffffffffffffffffffffffffffffffffff82169050919050565b600061335a8261332f565b9050919050565b61336a8161334f565b811461337557600080fd5b50565b60008135905061338781613361565b92915050565b600080604083850312156133a4576133a3613325565b5b60006133b285828601613378565b92505060206133c385828601613378565b9150509250929050565b6000819050919050565b6133e0816133cd565b82525050565b60006020820190506133fb60008301846133d7565b92915050565b61340a816133cd565b811461341557600080fd5b50565b60008135905061342781613401565b92915050565b600080600080600060a0868803121561344957613448613325565b5b600061345788828901613378565b955050602061346888828901613378565b945050604061347988828901613378565b935050606061348a88828901613378565b925050608061349b88828901613418565b9150509295509295909350565b60008115159050919050565b6134bd816134a8565b82525050565b60006020820190506134d860008301846134b4565b92915050565b60008060008060008060c087890312156134fb576134fa613325565b5b600061350989828a01613378565b965050602061351a89828a01613378565b955050604061352b89828a01613418565b945050606061353c89828a01613378565b935050608061354d89828a01613378565b92505060a061355e89828a01613418565b9150509295509295509295565b60006020828403121561358157613580613325565b5b600061358f84828501613378565b91505092915050565b600081519050919050565b600082825260208201905092915050565b6000819050602082019050919050565b6135cd8161334f565b82525050565b60006135df83836135c4565b60208301905092915050565b6000602082019050919050565b600061360382613598565b61360d81856135a3565b9350613618836135b4565b8060005b8381101561364957815161363088826135d3565b975061363b836135eb565b92505060018101905061361c565b5085935050505092915050565b6000602082019050818103600083015261367081846135f8565b905092915050565b60008060006060848603121561369157613690613325565b5b600061369f86828701613378565b93505060206136b086828701613378565b92505060406136c186828701613378565b9150509250925092565b600080600080600060a086880312156136e7576136e6613325565b5b60006136f588828901613378565b955050602061370688828901613378565b945050604061371788828901613418565b935050606061372888828901613378565b925050608061373988828901613378565b9150509295509295909350565b600081519050919050565b600082825260208201905092915050565b6000819050602082019050919050565b61377b816133cd565b82525050565b600061378d8383613772565b60208301905092915050565b6000602082019050919050565b60006137b182613746565b6137bb8185613751565b93506137c683613762565b8060005b838110156137f75781516137de8882613781565b97506137e983613799565b9250506001810190506137ca565b5085935050505092915050565b6000604082019050818103600083015261381e81856135f8565b9050818103602083015261383281846137a6565b90509392505050565b600082825260208201905092915050565b7f5265656e7472616e637947756172643a207265656e7472616e742063616c6c00600082015250565b6000613882601f8361383b565b915061388d8261384c565b602082019050919050565b600060208201905081810360008301526138b181613875565b9050919050565b7f496e76616c6964206c6f636b656420746f6b656e20636f6e7472616374000000600082015250565b60006138ee601d8361383b565b91506138f9826138b8565b602082019050919050565b6000602082019050818103600083015261391d816138e1565b9050919050565b7f4e487b7100000000000000000000000000000000000000000000000000000000600052603260045260246000fd5b8082525050565b600060208201905061396f6000830184613953565b92915050565b600080fd5b6000601f19601f8301169050919050565b7f4e487b7100000000000000000000000000000000000000000000000000000000600052604160045260246000fd5b6139c38261397a565b810181811067ffffffffffffffff821117156139e2576139e161398b565b5b80604052505050565b60006139f561331b565b9050613a0182826139ba565b919050565b600067ffffffffffffffff821115613a2157613a2061398b565b5b602082029050602081019050919050565b600080fd5b600081519050613a4681613361565b92915050565b6000613a5f613a5a84613a06565b6139eb565b90508083825260208201905060208402830185811115613a8257613a81613a32565b5b835b81811015613aab5780613a978882613a37565b845260208401935050602081019050613a84565b5050509392505050565b600082601f830112613aca57613ac9613975565b5b8151613ada848260208601613a4c565b91505092915050565b600060208284031215613af957613af8613325565b5b600082015167ffffffffffffffff811115613b1757613b1661332a565b5b613b2384828501613ab5565b91505092915050565b613b358161334f565b82525050565b6000604082019050613b506000830185613953565b613b5d6020830184613b2c565b9392505050565b613b6d816134a8565b8114613b7857600080fd5b50565b600081519050613b8a81613b64565b92915050565b600060208284031215613ba657613ba5613325565b5b6000613bb484828501613b7b565b91505092915050565b7f47726f7570206e6f7420656c696769626c650000000000000000000000000000600082015250565b6000613bf360128361383b565b9150613bfe82613bbd565b602082019050919050565b60006020820190508181036000830152613c2281613be6565b9050919050565b7f566f74652076616c75652063616e6e6f74206265207a65726f00000000000000600082015250565b6000613c5f60198361383b565b9150613c6a82613c29565b602082019050919050565b60006020820190508181036000830152613c8e81613c52565b9050919050565b7f566f74656420666f7220746f6f206d616e792067726f75707300000000000000600082015250565b6000613ccb60198361383b565b9150613cd682613c95565b602082019050919050565b60006020820190508181036000830152613cfa81613cbe565b9050919050565b613d0a8161334f565b82525050565b6000604082019050613d256000830185613d01565b613d3260208301846133d7565b9392505050565b7f47726f75702061646472657373207a65726f0000000000000000000000000000600082015250565b6000613d6f60128361383b565b9150613d7a82613d39565b602082019050919050565b60006020820190508181036000830152613d9e81613d62565b9050919050565b7f566f74652076616c7565206c6172676572207468616e2070656e64696e67207660008201527f6f74657300000000000000000000000000000000000000000000000000000000602082015250565b6000613e0160248361383b565b9150613e0c82613da5565b604082019050919050565b60006020820190508181036000830152613e3081613df4565b9050919050565b600067ffffffffffffffff821115613e5257613e5161398b565b5b602082029050602081019050919050565b600081519050613e7281613401565b92915050565b6000613e8b613e8684613e37565b6139eb565b90508083825260208201905060208402830185811115613eae57613ead613a32565b5b835b81811015613ed75780613ec38882613e63565b845260208401935050602081019050613eb0565b5050509392505050565b600082601f830112613ef657613ef5613975565b5b8151613f06848260208601613e78565b91505092915050565b60008060408385031215613f2657613f25613325565b5b600083015167ffffffffffffffff811115613f4457613f4361332a565b5b613f5085828601613ab5565b925050602083015167ffffffffffffffff811115613f7157613f7061332a565b5b613f7d85828601613ee1565b9150509250929050565b7f4e487b7100000000000000000000000000000000000000000000000000000000600052601160045260246000fd5b6000613fc1826133cd565b9150613fcc836133cd565b925082821015613fdf57613fde613f87565b5b828203905092915050565b6000613ff5826133cd565b9150614000836133cd565b9250827fffffffffffffffffffffffffffffffffffffffffffffffffffffffffffffffff0382111561403557614034613f87565b5b828201905092915050565b600061404b826133cd565b9150614056836133cd565b9250817fffffffffffffffffffffffffffffffffffffffffffffffffffffffffffffffff048311821515161561408f5761408e613f87565b5b828202905092915050565b7f4e487b7100000000000000000000000000000000000000000000000000000000600052601260045260246000fd5b60006140d4826133cd565b91506140df836133cd565b9250826140ef576140ee61409a565b5b828204905092915050565b7f566f74652076616c7565206c6172676572207468616e2061637469766520766f60008201527f7465730000000000000000000000000000000000000000000000000000000000602082015250565b600061415660238361383b565b9150614161826140fa565b604082019050919050565b6000602082019050818103600083015261418581614149565b9050919050565b60006040820190506141a160008301856133d7565b6141ae60208301846133d7565b9392505050565b6000602082840312156141cb576141ca613325565b5b60006141d984828501613e63565b91505092915050565b6141eb816133cd565b82525050565b600060a0820190506142066000830188613953565b6142136020830187613b2c565b61422060408301866141e2565b61422d6060830185613b2c565b61423a6080830184613b2c565b9695505050505050565b7f50656e64696e6720766f74652065706f6368206e6f7420706173736564000000600082015250565b600061427a601d8361383b565b915061428582614244565b602082019050919050565b600060208201905081810360008301526142a98161426d565b9050919050565b7f42616420696e6465780000000000000000000000000000000000000000000000600082015250565b60006142e660098361383b565b91506142f1826142b0565b602082019050919050565b60006020820190508181036000830152614315816142d9565b905091905056fea2646970667358221220ec44c6abdb5353a1e869316a19ba55920c6b5a739a2954d3c55f4a2e33ce78f764736f6c634300080a0033",
  "immutableReferences": {},
  "source": "pragma solidity ^0.8.0;\n\nimport \"@openzeppelin/contracts/utils/math/Math.sol\";\nimport \"@openzeppelin/contracts/utils/math/SafeMath.sol\";\nimport \"@openzeppelin/contracts/security/ReentrancyGuard.sol\";\n\nimport \"./linkedlists/AddressSortedLinkedList.sol\";\nimport \"./interfaces/ILockedToken.sol\";\nimport \"./interfaces/IElection.sol\";\n\ncontract Election is IElection, ReentrancyGuard\n{\n  using AddressSortedLinkedList for SortedLinkedList.List;\n  using SafeMath for uint256;\n\n  // 1e20 ensures that units can be represented as precisely as possible to avoid rounding errors\n  // when translating to votes, without risking integer overflow.\n  // A maximum of 1,000,000,000 CELO (1e27) yields a maximum of 1e47 units, whose product is at\n  // most 1e74, which is less than 2^256.\n  uint256 private constant UNIT_PRECISION_FACTOR = 100000000000000000000;\n\n  struct PendingVote {\n    // The value of the vote, in gold.\n    uint256 value;\n    // The epoch at which the vote was cast.\n    uint256 epoch;\n  }\n\n  struct GroupPendingVotes {\n    // The total number of pending votes that have been cast for this group.\n    uint256 total;\n    // Pending votes cast per voter.\n    mapping(address => PendingVote) byAccount;\n  }\n\n  // Pending votes are those for which no following elections have been held.\n  // These votes have yet to contribute to the election of validators and thus do not accrue\n  // rewards.\n  struct PendingVotes {\n    // The total number of pending votes cast across all groups.\n    uint256 total;\n    mapping(address => GroupPendingVotes) forGroup;\n  }\n\n  struct GroupActiveVotes {\n    // The total number of active votes that have been cast for this group.\n    uint256 total;\n    // The total number of active votes by a voter is equal to the number of active vote units for\n    // that voter times the total number of active votes divided by the total number of active\n    // vote units.\n    uint256 totalUnits;\n    mapping(address => uint256) unitsByAccount;\n  }\n\n  // Active votes are those for which at least one following election has been held.\n  // These votes have contributed to the election of validators and thus accrue rewards.\n  struct ActiveVotes {\n    // The total number of active votes cast across all groups.\n    uint256 total;\n    mapping(address => GroupActiveVotes) forGroup;\n  }\n\n  struct TotalVotes {\n    // A list of eligible ValidatorGroups sorted by total (pending+active) votes.\n    // Note that this list will omit ineligible ValidatorGroups, including those that may have > 0\n    // total votes.\n    SortedLinkedList.List eligible;\n  }\n\n  struct Votes {\n    mapping(address => PendingVotes) pending;\n    mapping(address => ActiveVotes) active;\n    mapping(address => TotalVotes) total;\n    // Maps an account to the list of groups it's voting for.\n    mapping(address => mapping(address => address[])) groupsVotedFor;\n  }\n\n  struct Lockable {\n    mapping(address => bool) valid;\n    mapping(address => ILockedToken) instance;\n  }\n\n  uint256 private epochNumber;\n  Lockable private lockable; \n  Votes private votes;\n  // Governs how many validator groups a single account can vote for.\n  uint256 public maxNumGroupsVotedFor;\n\n  event ValidatorGroupVoteCast(address indexed token, address indexed account, address indexed group, uint256 value);\n  event ValidatorGroupVoteActivated(\n    address indexed token,\n    address indexed account,\n    address indexed group,\n    uint256 value,\n    uint256 units\n  );\n  event ValidatorGroupPendingVoteRevoked(\n    address indexed token,\n    address indexed account,\n    address indexed group,\n    uint256 value\n  );\n  event ValidatorGroupActiveVoteRevoked(\n    address indexed token,\n    address indexed account,\n    address indexed group,\n    uint256 value,\n    uint256 units\n  );\n\n  /**\n   * @notice Sets initialized == true on implementation contracts\n   */\n  constructor(address[] memory tokens, address[] memory groups, uint256[][] memory _votes, uint256[][] memory order) \n  {\n    require(tokens.length == _votes.length, \"Votes 1st dim should be same as tokens\");\n    require(tokens.length == order.length, \"Order 2nd dim should be same as tokens\");\n    for (uint256 i = 0; i < tokens.length; i = i.add(1)) {\n        address token = tokens[i];\n        lockable.valid[token] = true;\n        lockable.instance[token] = ILockedToken(token);\n        \n        require(groups.length == _votes[i].length, \"Votes 2nd dim should be same as groups\");\n        require(groups.length == order[i].length, \"Order 2nd dim should be same as groups\");\n        for (uint256 j = 0; j < groups.length; j = j.add(1)) {\n            address group = groups[order[i][j]];\n            incrementActiveVotes(token, group, address(this), _votes[i][j]);\n            if (j == 0) {\n                votes.total[token].eligible.insert(group, _votes[i][j], address(0), address(0));\n            }else{\n                votes.total[token].eligible.insert(group, _votes[i][j], groups[order[i][j.sub(1)]], address(0));\n            }\n        }\n    }\n  }\n\n  /**\n   * @notice Increments the number of total and pending votes for `group`.\n   * @param token The address of the locked token contract.\n   * @param group The validator group to vote for.\n   * @param value The amount of gold to use to vote.\n   * @param lesser The group receiving fewer votes than `group`, or 0 if `group` has the\n   *   fewest votes of any validator group.\n   * @param greater The group receiving more votes than `group`, or 0 if `group` has the\n   *   most votes of any validator group.\n   * @return True upon success.\n   * @dev Fails if `group` is empty or not a validator group.\n   */\n  function vote(address token, address group, uint256 value, address lesser, address greater)\n    external\n    nonReentrant\n    returns (bool)\n  {\n    require(lockable.valid[token], \"Invalid locked token contract\");\n    require(votes.total[token].eligible.contains(group), \"Group not eligible\");\n    require(0 < value, \"Vote value cannot be zero\");\n    address account = msg.sender;\n\n    // Add group to the groups voted for by the account.\n    bool alreadyVotedForGroup = false;\n    address[] storage groups = votes.groupsVotedFor[account][token];\n    for (uint256 i = 0; i < groups.length; i = i.add(1)) {\n      alreadyVotedForGroup = alreadyVotedForGroup || groups[i] == group;\n    }\n    if (!alreadyVotedForGroup) {\n      require(groups.length < maxNumGroupsVotedFor, \"Voted for too many groups\");\n      groups.push(group);\n    }\n\n    incrementPendingVotes(token, group, account, value);\n    incrementTotalVotes(token, group, value, lesser, greater);\n    lockable.instance[token].decrementNonvotingAccountBalance(account, value);\n    emit ValidatorGroupVoteCast(token, account, group, value);\n    return true;\n  }\n\n  /**\n   * @notice Converts `account`'s pending votes for `group` to active votes.\n   * @param token The address of the locked token contract.\n   * @param group The validator group to vote for.\n   * @return True upon success.\n   * @dev Pending votes cannot be activated until an election has been held.\n   */\n  function activate(address token, address group) external nonReentrant returns (bool) {\n    require(lockable.valid[token], \"Invalid locked token contract\");\n    address account = msg.sender;\n    return _activate(token, group, account);\n  }\n\n  /**\n   * @notice Converts `account`'s pending votes for `group` to active votes.\n   * @param token The address of the locked token contract.\n   * @param group The validator group to vote for.\n   * @return True upon success.\n   * @dev Pending votes cannot be activated until an election has been held.\n   */\n  function _activate(address token, address group, address account) internal returns (bool) {\n    PendingVote storage pendingVote = votes.pending[token].forGroup[group].byAccount[account];\n    require(pendingVote.epoch < epochNumber, \"Pending vote epoch not passed\");\n    uint256 value = pendingVote.value;\n    require(value > 0, \"Vote value cannot be zero\");\n    decrementPendingVotes(token, group, account, value);\n    uint256 units = incrementActiveVotes(token, group, account, value);\n    emit ValidatorGroupVoteActivated(token, account, group, value, units);\n    return true;\n  }\n\n  /**\n   * @notice Returns whether or not an account's votes for the specified group can be activated.\n   * @param token The address of the locked token contract.\n   * @param account The account with pending votes.\n   * @param group The validator group that `account` has pending votes for.\n   * @return Whether or not `account` has activatable votes for `group`.\n   * @dev Pending votes cannot be activated until an election has been held.\n   */\n  function hasActivatablePendingVotes(address token, address account, address group) external view returns (bool) {\n    require(lockable.valid[token], \"Invalid locked token contract\");\n    PendingVote storage pendingVote = votes.pending[token].forGroup[group].byAccount[account];\n    return pendingVote.epoch < epochNumber && pendingVote.value > 0;\n  }\n\n  /**\n   * @notice Revokes `value` pending votes for `group`\n   * @param token The address of the locked token contract.\n   * @param group The validator group to revoke votes from.\n   * @param value The number of votes to revoke.\n   * @param lesser The group receiving fewer votes than the group for which the vote was revoked,\n   *   or 0 if that group has the fewest votes of any validator group.\n   * @param greater The group receiving more votes than the group for which the vote was revoked,\n   *   or 0 if that group has the most votes of any validator group.\n   * @param index The index of the group in the account's voting list.\n   * @return True upon success.\n   * @dev Fails if the account has not voted on a validator group.\n   */\n  function revokePending(\n    address token,\n    address group,\n    uint256 value,\n    address lesser,\n    address greater,\n    uint256 index\n  ) external nonReentrant returns (bool) {\n    require(lockable.valid[token], \"Invalid locked token contract\");\n    require(group != address(0), \"Group address zero\");\n    address account = msg.sender;\n    require(0 < value, \"Vote value cannot be zero\");\n    require(\n      value <= getPendingVotesForGroupByAccount(token, group, account),\n      \"Vote value larger than pending votes\"\n    );\n    decrementPendingVotes(token, group, account, value);\n    decrementTotalVotes(token, group, value, lesser, greater);\n    lockable.instance[token].incrementNonvotingAccountBalance(account, value);\n    if (getTotalVotesForGroupByAccount(token, group, account) == 0) {\n      deleteElement(votes.groupsVotedFor[account][token], group, index);\n    }\n    emit ValidatorGroupPendingVoteRevoked(token, account, group, value);\n    return true;\n  }\n\n  /**\n   * @notice Revokes all active votes for `group`\n   * @param token The address of the locked token contract.\n   * @param group The validator group to revoke votes from.\n   * @param lesser The group receiving fewer votes than the group for which the vote was revoked,\n   *   or 0 if that group has the fewest votes of any validator group.\n   * @param greater The group receiving more votes than the group for which the vote was revoked,\n   *   or 0 if that group has the most votes of any validator group.\n   * @param index The index of the group in the account's voting list.\n   * @return True upon success.\n   * @dev Fails if the account has not voted on a validator group.\n   */\n  function revokeAllActive(address token, address group, address lesser, address greater, uint256 index)\n    external\n    nonReentrant\n    returns (bool)\n  {\n    require(lockable.valid[token], \"Invalid locked token contract\");\n    address account = msg.sender;\n    uint256 value = getActiveVotesForGroupByAccount(token, group, account);\n    return _revokeActive(token, group, value, lesser, greater, index);\n  }\n\n  /**\n   * @notice Revokes `value` active votes for `group`\n   * @param token The address of the locked token contract.\n   * @param group The validator group to revoke votes from.\n   * @param value The number of votes to revoke.\n   * @param lesser The group receiving fewer votes than the group for which the vote was revoked,\n   *   or 0 if that group has the fewest votes of any validator group.\n   * @param greater The group receiving more votes than the group for which the vote was revoked,\n   *   or 0 if that group has the most votes of any validator group.\n   * @param index The index of the group in the account's voting list.\n   * @return True upon success.\n   * @dev Fails if the account has not voted on a validator group.\n   */\n  function revokeActive(\n    address token,\n    address group,\n    uint256 value,\n    address lesser,\n    address greater,\n    uint256 index\n  ) external nonReentrant returns (bool) {\n    require(lockable.valid[token], \"Invalid locked token contract\");\n    return _revokeActive(token, group, value, lesser, greater, index);\n  }\n\n  function _revokeActive(\n    address token,\n    address group,\n    uint256 value,\n    address lesser,\n    address greater,\n    uint256 index\n  ) internal returns (bool) {\n    // TODO(asa): Dedup with revokePending.\n    require(group != address(0), \"Group address zero\");\n    address account = msg.sender;\n    require(0 < value, \"Vote value cannot be zero\");\n    require(\n      value <= getActiveVotesForGroupByAccount(token, group, account),\n      \"Vote value larger than active votes\"\n    );\n    uint256 units = decrementActiveVotes(token, group, account, value);\n    decrementTotalVotes(token, group, value, lesser, greater);\n    lockable.instance[token].incrementNonvotingAccountBalance(account, value);\n    if (getTotalVotesForGroupByAccount(token, group, account) == 0) {\n      deleteElement(votes.groupsVotedFor[account][token], group, index);\n    }\n    emit ValidatorGroupActiveVoteRevoked(token, account, group, value, units);\n    return true;\n  }\n\n  /**\n   * @notice Decrements `value` pending or active votes for `group` from `account`.\n   *         First revokes all pending votes and then, if `value` votes haven't\n   *         been revoked yet, revokes additional active votes.\n   *         Fundamentally calls `revokePending` and `revokeActive` but only resorts groups once.\n   * @param token The address of the locked token contract.\n   * @param account The account whose votes to `group` should be decremented.\n   * @param group The validator group to decrement votes from.\n   * @param maxValue The maxinum number of votes to decrement and revoke.\n   * @param lesser The group receiving fewer votes than the group for which the vote was revoked,\n   *               or 0 if that group has the fewest votes of any validator group.\n   * @param greater The group receiving more votes than the group for which the vote was revoked,\n   *                or 0 if that group has the most votes of any validator group.\n   * @param index The index of the group in the account's voting list.\n   * @return uint256 Number of votes successfully decremented and revoked, with a max of `value`.\n   */\n  function _decrementVotes(\n    address token,\n    address account,\n    address group,\n    uint256 maxValue,\n    address lesser,\n    address greater,\n    uint256 index\n  ) internal returns (uint256) {\n    uint256 remainingValue = maxValue;\n    uint256 pendingVotes = getPendingVotesForGroupByAccount(token, group, account);\n    if (pendingVotes > 0) {\n      uint256 decrementValue = Math.min(remainingValue, pendingVotes);\n      decrementPendingVotes(token, group, account, decrementValue);\n      emit ValidatorGroupPendingVoteRevoked(token, account, group, decrementValue);\n      remainingValue = remainingValue.sub(decrementValue);\n    }\n    uint256 activeVotes = getActiveVotesForGroupByAccount(token, group, account);\n    if (activeVotes > 0 && remainingValue > 0) {\n      uint256 decrementValue = Math.min(remainingValue, activeVotes);\n      uint256 units = decrementActiveVotes(token, group, account, decrementValue);\n      emit ValidatorGroupActiveVoteRevoked(token, account, group, decrementValue, units);\n      remainingValue = remainingValue.sub(decrementValue);\n    }\n    uint256 decrementedValue = maxValue.sub(remainingValue);\n    if (decrementedValue > 0) {\n      decrementTotalVotes(token, group, decrementedValue, lesser, greater);\n      if (getTotalVotesForGroupByAccount(token, group, account) == 0) {\n        deleteElement(votes.groupsVotedFor[account][token], group, index);\n      }\n    }\n    return decrementedValue;\n  }\n\n  /**\n   * @notice Returns the total number of votes cast by an account.\n   * @param token The address of the locked token contract.\n   * @param account The address of the account.\n   * @return The total number of votes cast by an account.\n   */\n  function getTotalVotesByAccount(address token, address account) external view returns (uint256) {\n    uint256 total = 0;\n    address[] memory groups = votes.groupsVotedFor[account][token];\n    for (uint256 i = 0; i < groups.length; i = i.add(1)) {\n      total = total.add(getTotalVotesForGroupByAccount(token, groups[i], account));\n    }\n    return total;\n  }\n\n  /**\n   * @notice Returns the pending votes for `group` made by `account`.\n   * @param token The address of the locked token contract.\n   * @param group The address of the validator group.\n   * @param account The address of the voting account.\n   * @return The pending votes for `group` made by `account`.\n   */\n  function getPendingVotesForGroupByAccount(address token, address group, address account)\n    public\n    view\n    returns (uint256)\n  {\n    return votes.pending[token].forGroup[group].byAccount[account].value;\n  }\n\n  /**\n   * @notice Returns the active votes for `group` made by `account`.\n   * @param token The address of the locked token contract.\n   * @param group The address of the validator group.\n   * @param account The address of the voting account.\n   * @return The active votes for `group` made by `account`.\n   */\n  function getActiveVotesForGroupByAccount(address token, address group, address account)\n    public\n    view\n    returns (uint256)\n  {\n    return unitsToVotes(token, group, votes.active[token].forGroup[group].unitsByAccount[account]);\n  }\n\n  /**\n   * @notice Returns the total votes for `group` made by `account`.\n   * @param token The address of the locked token contract.\n   * @param group The address of the validator group.\n   * @param account The address of the voting account.\n   * @return The total votes for `group` made by `account`.\n   */\n  function getTotalVotesForGroupByAccount(address token, address group, address account)\n    public\n    view\n    returns (uint256)\n  {\n    uint256 pending = getPendingVotesForGroupByAccount(token, group, account);\n    uint256 active = getActiveVotesForGroupByAccount(token, group, account);\n    return pending.add(active);\n  }\n\n  /**\n   * @notice Returns the active vote units for `group` made by `account`.\n   * @param token The address of the locked token contract.\n   * @param group The address of the validator group.\n   * @param account The address of the voting account.\n   * @return The active vote units for `group` made by `account`.\n   */\n  function getActiveVoteUnitsForGroupByAccount(address token, address group, address account)\n    external\n    view\n    returns (uint256)\n  {\n    return votes.active[token].forGroup[group].unitsByAccount[account];\n  }\n\n  /**\n   * @notice Returns the total active vote units made for `group`.\n   * @param token The address of the locked token contract.\n   * @param group The address of the validator group.\n   * @return The total active vote units made for `group`.\n   */\n  function getActiveVoteUnitsForGroup(address token, address group) external view returns (uint256) {\n    return votes.active[token].forGroup[group].totalUnits;\n  }\n\n  /**\n   * @notice Returns the total votes made for `group`.\n   * @param token The address of the locked token contract.\n   * @param group The address of the validator group.\n   * @return The total votes made for `group`.\n   */\n  function getTotalVotesForGroup(address token, address group) public view returns (uint256) {\n    return votes.pending[token].forGroup[group].total.add(votes.active[token].forGroup[group].total);\n  }\n\n  /**\n   * @notice Returns the active votes made for `group`.\n   * @param token The address of the locked token contract.\n   * @param group The address of the validator group.\n   * @return The active votes made for `group`.\n   */\n  function getActiveVotesForGroup(address token, address group) public view returns (uint256) {\n    return votes.active[token].forGroup[group].total;\n  }\n\n  /**\n   * @notice Returns the pending votes made for `group`.\n   * @param token The address of the locked token contract.\n   * @param group The address of the validator group.\n   * @return The pending votes made for `group`.\n   */\n  function getPendingVotesForGroup(address token, address group) public view returns (uint256) {\n    return votes.pending[token].forGroup[group].total;\n  }\n\n  /**\n   * @notice Returns whether or not a group is eligible to receive votes.\n   * @param token The address of the locked token contract.\n   * @return Whether or not a group is eligible to receive votes.\n   * @dev Eligible groups that have received their maximum number of votes cannot receive more.\n   */\n  function getGroupEligibility(address token, address group) external view returns (bool) {\n    return votes.total[token].eligible.contains(group);\n  }\n\n//   /**\n//    * @notice Distributes epoch rewards to voters for `group` in the form of active votes.\n//    * @param group The group whose voters will receive rewards.\n//    * @param value The amount of rewards to distribute to voters for the group.\n//    * @param lesser The group receiving fewer votes than `group` after the rewards are added.\n//    * @param greater The group receiving more votes than `group` after the rewards are added.\n//    * @dev Can only be called directly by the protocol.\n//    */\n//   function distributeEpochRewards(address group, uint256 value, address lesser, address greater)\n//     external\n//     onlyVm\n//   {\n//     _distributeEpochRewards(group, value, lesser, greater);\n//   }\n\n//   /**\n//    * @notice Distributes epoch rewards to voters for `group` in the form of active votes.\n//    * @param group The group whose voters will receive rewards.\n//    * @param value The amount of rewards to distribute to voters for the group.\n//    * @param lesser The group receiving fewer votes than `group` after the rewards are added.\n//    * @param greater The group receiving more votes than `group` after the rewards are added.\n//    */\n//   function _distributeEpochRewards(address group, uint256 value, address lesser, address greater)\n//     internal\n//   {\n//     if (votes.total.eligible.contains(group)) {\n//       uint256 newVoteTotal = votes.total.eligible.getValue(group).add(value);\n//       votes.total.eligible.update(group, newVoteTotal, lesser, greater);\n//     }\n\n//     votes.active.forGroup[group].total = votes.active.forGroup[group].total.add(value);\n//     votes.active.total = votes.active.total.add(value);\n//     emit EpochRewardsDistributedToVoters(group, value);\n//   }\n\n  /**\n   * @notice Increments the number of total votes for `group` by `value`.\n   * @param token The address of the locked token contract.\n   * @param group The validator group whose vote total should be incremented.\n   * @param value The number of votes to increment.\n   * @param lesser The group receiving fewer votes than the group for which the vote was cast,\n   *   or 0 if that group has the fewest votes of any validator group.\n   * @param greater The group receiving more votes than the group for which the vote was cast,\n   *   or 0 if that group has the most votes of any validator group.\n   */\n  function incrementTotalVotes(address token, address group, uint256 value, address lesser, address greater)\n    private\n  {\n    uint256 newVoteTotal = votes.total[token].eligible.getValue(group).add(value);\n    votes.total[token].eligible.update(group, newVoteTotal, lesser, greater);\n  }\n\n  /**\n   * @notice Decrements the number of total votes for `group` by `value`.\n   * @param token The address of the locked token contract.\n   * @param group The validator group whose vote total should be decremented.\n   * @param value The number of votes to decrement.\n   * @param lesser The group receiving fewer votes than the group for which the vote was revoked,\n   *   or 0 if that group has the fewest votes of any validator group.\n   * @param greater The group receiving more votes than the group for which the vote was revoked,\n   *   or 0 if that group has the most votes of any validator group.\n   */\n  function decrementTotalVotes(address token, address group, uint256 value, address lesser, address greater)\n    private\n  {\n    if (votes.total[token].eligible.contains(group)) {\n      uint256 newVoteTotal = votes.total[token].eligible.getValue(group).sub(value);\n      votes.total[token].eligible.update(group, newVoteTotal, lesser, greater);\n    }\n  }\n\n  /**\n   * @notice Increments the number of pending votes for `group` made by `account`.\n   * @param token The address of the locked token contract.\n   * @param group The address of the validator group.\n   * @param account The address of the voting account.\n   * @param value The number of votes.\n   */\n  function incrementPendingVotes(address token, address group, address account, uint256 value) private {\n    PendingVotes storage pending = votes.pending[token];\n    pending.total = pending.total.add(value);\n\n    GroupPendingVotes storage groupPending = pending.forGroup[group];\n    groupPending.total = groupPending.total.add(value);\n\n    PendingVote storage pendingVote = groupPending.byAccount[account];\n    pendingVote.value = pendingVote.value.add(value);\n    pendingVote.epoch = epochNumber;\n  }\n\n  /**\n   * @notice Decrements the number of pending votes for `group` made by `account`.\n   * @param token The address of the locked token contract.\n   * @param group The address of the validator group.\n   * @param account The address of the voting account.\n   * @param value The number of votes.\n   */\n  function decrementPendingVotes(address token, address group, address account, uint256 value) private {\n    PendingVotes storage pending = votes.pending[token];\n    pending.total = pending.total.sub(value);\n\n    GroupPendingVotes storage groupPending = pending.forGroup[group];\n    groupPending.total = groupPending.total.sub(value);\n\n    PendingVote storage pendingVote = groupPending.byAccount[account];\n    pendingVote.value = pendingVote.value.sub(value);\n    if (pendingVote.value == 0) {\n      pendingVote.epoch = 0;\n    }\n  }\n\n  /**\n   * @notice Increments the number of active votes for `group` made by `account`.\n   * @param token The address of the locked token contract.\n   * @param group The address of the validator group.\n   * @param account The address of the voting account.\n   * @param value The number of votes.\n   */\n  function incrementActiveVotes(address token, address group, address account, uint256 value)\n    private\n    returns (uint256)\n  {\n    ActiveVotes storage active = votes.active[token];\n    active.total = active.total.add(value);\n\n    uint256 units = votesToUnits(token, group, value);\n\n    GroupActiveVotes storage groupActive = active.forGroup[group];\n    groupActive.total = groupActive.total.add(value);\n\n    groupActive.totalUnits = groupActive.totalUnits.add(units);\n    groupActive.unitsByAccount[account] = groupActive.unitsByAccount[account].add(units);\n    return units;\n  }\n\n  /**\n   * @notice Decrements the number of active votes for `group` made by `account`.\n   * @param token The address of the locked token contract.\n   * @param group The address of the validator group.\n   * @param account The address of the voting account.\n   * @param value The number of votes.\n   */\n  function decrementActiveVotes(address token, address group, address account, uint256 value)\n    private\n    returns (uint256)\n  {\n    ActiveVotes storage active = votes.active[token];\n    active.total = active.total.sub(value);\n\n    // Rounding may cause votesToUnits to return 0 for value != 0, preventing users\n    // from revoking the last of their votes. The case where value == votes is special cased\n    // to prevent this.\n    uint256 units = 0;\n    uint256 activeVotes = getActiveVotesForGroupByAccount(token, group, account);\n    GroupActiveVotes storage groupActive = active.forGroup[group];\n    if (activeVotes == value) {\n      units = groupActive.unitsByAccount[account];\n    } else {\n      units = votesToUnits(token, group, value);\n    }\n\n    groupActive.total = groupActive.total.sub(value);\n    groupActive.totalUnits = groupActive.totalUnits.sub(units);\n    groupActive.unitsByAccount[account] = groupActive.unitsByAccount[account].sub(units);\n    return units;\n  }\n\n  /**\n   * @notice Returns the number of units corresponding to `value` active votes.\n   * @param token The address of the locked token contract.\n   * @param group The address of the validator group.\n   * @param value The number of active votes.\n   * @return The corresponding number of units.\n   */\n  function votesToUnits(address token, address group, uint256 value) private view returns (uint256) {\n    if (votes.active[token].forGroup[group].totalUnits == 0) {\n      return value.mul(UNIT_PRECISION_FACTOR);\n    } else {\n      return\n        value.mul(votes.active[token].forGroup[group].totalUnits).div(votes.active[token].forGroup[group].total);\n    }\n  }\n\n  /**\n   * @notice Returns the number of active votes corresponding to `value` units.\n   * @param token The address of the locked token contract.\n   * @param group The address of the validator group.\n   * @param value The number of units.\n   * @return The corresponding number of active votes.\n   */\n  function unitsToVotes(address token, address group, uint256 value) private view returns (uint256) {\n    if (votes.active[token].forGroup[group].totalUnits == 0) {\n      return 0;\n    } else {\n      return\n        value.mul(votes.active[token].forGroup[group].total).div(votes.active[token].forGroup[group].totalUnits);\n    }\n  }\n\n  /**\n   * @notice Returns the groups that `account` has voted for.\n   * @param token The address of the locked token contract.\n   * @param account The address of the account casting votes.\n   * @return The groups that `account` has voted for.\n   */\n  function getGroupsVotedForByAccount(address token, address account) external view returns (address[] memory) {\n    return votes.groupsVotedFor[account][token];\n  }\n\n  /**\n   * @notice Deletes an element from a list of addresses.\n   * @param list The list of addresses.\n   * @param element The address to delete.\n   * @param index The index of `element` in the list.\n   */\n  function deleteElement(address[] storage list, address element, uint256 index) private {\n    require(index < list.length && list[index] == element, \"Bad index\");\n    delete list[index];\n  }\n\n  /**\n   * @notice Returns the total votes received across all groups.\n   * @param token The address of the locked token contract.\n   * @return The total votes received across all groups.\n   */\n  function getTotalVotes(address token) public view returns (uint256) {\n    return votes.active[token].total.add(votes.pending[token].total);\n  }\n\n  /**\n   * @notice Returns the active votes received across all groups.\n   * @param token The address of the locked token contract.\n   * @return The active votes received across all groups.\n   */\n  function getActiveVotes(address token) public view returns (uint256) {\n    return votes.active[token].total;\n  }\n\n  /**\n   * @notice Returns the list of validator groups eligible to elect validators.\n   * @param token The address of the locked token contract.\n   * @return The list of validator groups eligible to elect validators.\n   */\n  function getEligibleValidatorGroups(address token) external view returns (address[] memory) {\n    return votes.total[token].eligible.getKeys();\n  }\n\n  /**\n   * @notice Returns lists of all validator groups and the number of votes they've received.\n   * @param token The address of the locked token contract.\n   */\n  function getTotalVotesForEligibleValidatorGroups(address token)\n    external\n    view\n    returns (address[] memory groups, uint256[] memory values)\n  {\n    return votes.total[token].eligible.getElements();\n  }\n}",
  "sourcePath": "/mnt/d/Projects/code/make-crypto-mobile-hackathon/proof_of_deposit/codebase/contracts/contracts/Election.sol",
  "compiler": {
    "name": "solc",
    "version": "0.8.10+commit.fc410830.Emscripten.clang"
  },
  "schemaVersion": "3.4.1",
  "updatedAt": "2021-11-22T21:54:43.212Z",
  "networkType": "ethereum",
  "devdoc": {
    "kind": "dev",
    "methods": {
      "activate(address,address)": {
        "details": "Pending votes cannot be activated until an election has been held.",
        "params": {
          "group": "The validator group to vote for.",
          "token": "The address of the locked token contract."
        },
        "returns": {
          "_0": "True upon success."
        }
      },
      "getActiveVoteUnitsForGroup(address,address)": {
        "params": {
          "group": "The address of the validator group.",
          "token": "The address of the locked token contract."
        },
        "returns": {
          "_0": "The total active vote units made for `group`."
        }
      },
      "getActiveVoteUnitsForGroupByAccount(address,address,address)": {
        "params": {
          "account": "The address of the voting account.",
          "group": "The address of the validator group.",
          "token": "The address of the locked token contract."
        },
        "returns": {
          "_0": "The active vote units for `group` made by `account`."
        }
      },
      "getActiveVotes(address)": {
        "params": {
          "token": "The address of the locked token contract."
        },
        "returns": {
          "_0": "The active votes received across all groups."
        }
      },
      "getActiveVotesForGroup(address,address)": {
        "params": {
          "group": "The address of the validator group.",
          "token": "The address of the locked token contract."
        },
        "returns": {
          "_0": "The active votes made for `group`."
        }
      },
      "getActiveVotesForGroupByAccount(address,address,address)": {
        "params": {
          "account": "The address of the voting account.",
          "group": "The address of the validator group.",
          "token": "The address of the locked token contract."
        },
        "returns": {
          "_0": "The active votes for `group` made by `account`."
        }
      },
      "getEligibleValidatorGroups(address)": {
        "params": {
          "token": "The address of the locked token contract."
        },
        "returns": {
          "_0": "The list of validator groups eligible to elect validators."
        }
      },
      "getGroupEligibility(address,address)": {
        "details": "Eligible groups that have received their maximum number of votes cannot receive more.",
        "params": {
          "token": "The address of the locked token contract."
        },
        "returns": {
          "_0": "Whether or not a group is eligible to receive votes."
        }
      },
      "getGroupsVotedForByAccount(address,address)": {
        "params": {
          "account": "The address of the account casting votes.",
          "token": "The address of the locked token contract."
        },
        "returns": {
          "_0": "The groups that `account` has voted for."
        }
      },
      "getPendingVotesForGroup(address,address)": {
        "params": {
          "group": "The address of the validator group.",
          "token": "The address of the locked token contract."
        },
        "returns": {
          "_0": "The pending votes made for `group`."
        }
      },
      "getPendingVotesForGroupByAccount(address,address,address)": {
        "params": {
          "account": "The address of the voting account.",
          "group": "The address of the validator group.",
          "token": "The address of the locked token contract."
        },
        "returns": {
          "_0": "The pending votes for `group` made by `account`."
        }
      },
      "getTotalVotes(address)": {
        "params": {
          "token": "The address of the locked token contract."
        },
        "returns": {
          "_0": "The total votes received across all groups."
        }
      },
      "getTotalVotesByAccount(address,address)": {
        "params": {
          "account": "The address of the account.",
          "token": "The address of the locked token contract."
        },
        "returns": {
          "_0": "The total number of votes cast by an account."
        }
      },
      "getTotalVotesForEligibleValidatorGroups(address)": {
        "params": {
          "token": "The address of the locked token contract."
        }
      },
      "getTotalVotesForGroup(address,address)": {
        "params": {
          "group": "The address of the validator group.",
          "token": "The address of the locked token contract."
        },
        "returns": {
          "_0": "The total votes made for `group`."
        }
      },
      "getTotalVotesForGroupByAccount(address,address,address)": {
        "params": {
          "account": "The address of the voting account.",
          "group": "The address of the validator group.",
          "token": "The address of the locked token contract."
        },
        "returns": {
          "_0": "The total votes for `group` made by `account`."
        }
      },
      "hasActivatablePendingVotes(address,address,address)": {
        "details": "Pending votes cannot be activated until an election has been held.",
        "params": {
          "account": "The account with pending votes.",
          "group": "The validator group that `account` has pending votes for.",
          "token": "The address of the locked token contract."
        },
        "returns": {
          "_0": "Whether or not `account` has activatable votes for `group`."
        }
      },
      "revokeActive(address,address,uint256,address,address,uint256)": {
        "details": "Fails if the account has not voted on a validator group.",
        "params": {
          "greater": "The group receiving more votes than the group for which the vote was revoked,   or 0 if that group has the most votes of any validator group.",
          "group": "The validator group to revoke votes from.",
          "index": "The index of the group in the account's voting list.",
          "lesser": "The group receiving fewer votes than the group for which the vote was revoked,   or 0 if that group has the fewest votes of any validator group.",
          "token": "The address of the locked token contract.",
          "value": "The number of votes to revoke."
        },
        "returns": {
          "_0": "True upon success."
        }
      },
      "revokeAllActive(address,address,address,address,uint256)": {
        "details": "Fails if the account has not voted on a validator group.",
        "params": {
          "greater": "The group receiving more votes than the group for which the vote was revoked,   or 0 if that group has the most votes of any validator group.",
          "group": "The validator group to revoke votes from.",
          "index": "The index of the group in the account's voting list.",
          "lesser": "The group receiving fewer votes than the group for which the vote was revoked,   or 0 if that group has the fewest votes of any validator group.",
          "token": "The address of the locked token contract."
        },
        "returns": {
          "_0": "True upon success."
        }
      },
      "revokePending(address,address,uint256,address,address,uint256)": {
        "details": "Fails if the account has not voted on a validator group.",
        "params": {
          "greater": "The group receiving more votes than the group for which the vote was revoked,   or 0 if that group has the most votes of any validator group.",
          "group": "The validator group to revoke votes from.",
          "index": "The index of the group in the account's voting list.",
          "lesser": "The group receiving fewer votes than the group for which the vote was revoked,   or 0 if that group has the fewest votes of any validator group.",
          "token": "The address of the locked token contract.",
          "value": "The number of votes to revoke."
        },
        "returns": {
          "_0": "True upon success."
        }
      },
      "vote(address,address,uint256,address,address)": {
        "details": "Fails if `group` is empty or not a validator group.",
        "params": {
          "greater": "The group receiving more votes than `group`, or 0 if `group` has the   most votes of any validator group.",
          "group": "The validator group to vote for.",
          "lesser": "The group receiving fewer votes than `group`, or 0 if `group` has the   fewest votes of any validator group.",
          "token": "The address of the locked token contract.",
          "value": "The amount of gold to use to vote."
        },
        "returns": {
          "_0": "True upon success."
        }
      }
    },
    "version": 1
  },
  "userdoc": {
    "kind": "user",
    "methods": {
      "activate(address,address)": {
        "notice": "Converts `account`'s pending votes for `group` to active votes."
      },
      "constructor": {
        "notice": "Sets initialized == true on implementation contracts"
      },
      "getActiveVoteUnitsForGroup(address,address)": {
        "notice": "Returns the total active vote units made for `group`."
      },
      "getActiveVoteUnitsForGroupByAccount(address,address,address)": {
        "notice": "Returns the active vote units for `group` made by `account`."
      },
      "getActiveVotes(address)": {
        "notice": "Returns the active votes received across all groups."
      },
      "getActiveVotesForGroup(address,address)": {
        "notice": "Returns the active votes made for `group`."
      },
      "getActiveVotesForGroupByAccount(address,address,address)": {
        "notice": "Returns the active votes for `group` made by `account`."
      },
      "getEligibleValidatorGroups(address)": {
        "notice": "Returns the list of validator groups eligible to elect validators."
      },
      "getGroupEligibility(address,address)": {
        "notice": "Returns whether or not a group is eligible to receive votes."
      },
      "getGroupsVotedForByAccount(address,address)": {
        "notice": "Returns the groups that `account` has voted for."
      },
      "getPendingVotesForGroup(address,address)": {
        "notice": "Returns the pending votes made for `group`."
      },
      "getPendingVotesForGroupByAccount(address,address,address)": {
        "notice": "Returns the pending votes for `group` made by `account`."
      },
      "getTotalVotes(address)": {
        "notice": "Returns the total votes received across all groups."
      },
      "getTotalVotesByAccount(address,address)": {
        "notice": "Returns the total number of votes cast by an account."
      },
      "getTotalVotesForEligibleValidatorGroups(address)": {
        "notice": "Returns lists of all validator groups and the number of votes they've received."
      },
      "getTotalVotesForGroup(address,address)": {
        "notice": "Returns the total votes made for `group`."
      },
      "getTotalVotesForGroupByAccount(address,address,address)": {
        "notice": "Returns the total votes for `group` made by `account`."
      },
      "hasActivatablePendingVotes(address,address,address)": {
        "notice": "Returns whether or not an account's votes for the specified group can be activated."
      },
      "revokeActive(address,address,uint256,address,address,uint256)": {
        "notice": "Revokes `value` active votes for `group`"
      },
      "revokeAllActive(address,address,address,address,uint256)": {
        "notice": "Revokes all active votes for `group`"
      },
      "revokePending(address,address,uint256,address,address,uint256)": {
        "notice": "Revokes `value` pending votes for `group`"
      },
      "vote(address,address,uint256,address,address)": {
        "notice": "Increments the number of total and pending votes for `group`."
      }
    },
    "version": 1
  }
}