{
  "contractName": "LockedCGLD",
  "abi": [
    {
      "inputs": [
        {
          "internalType": "address",
          "name": "tokenAddress",
          "type": "address"
        },
        {
          "internalType": "uint256",
          "name": "unlockingPeriod",
          "type": "uint256"
        }
      ],
      "stateMutability": "nonpayable",
      "type": "constructor"
    },
    {
      "anonymous": false,
      "inputs": [
        {
          "indexed": true,
          "internalType": "address",
          "name": "account",
          "type": "address"
        },
        {
          "indexed": false,
          "internalType": "uint256",
          "name": "value",
          "type": "uint256"
        }
      ],
      "name": "TokenLocked",
      "type": "event"
    },
    {
      "anonymous": false,
      "inputs": [
        {
          "indexed": true,
          "internalType": "address",
          "name": "account",
          "type": "address"
        },
        {
          "indexed": false,
          "internalType": "uint256",
          "name": "value",
          "type": "uint256"
        }
      ],
      "name": "TokenRelocked",
      "type": "event"
    },
    {
      "anonymous": false,
      "inputs": [
        {
          "indexed": true,
          "internalType": "address",
          "name": "account",
          "type": "address"
        },
        {
          "indexed": false,
          "internalType": "uint256",
          "name": "value",
          "type": "uint256"
        },
        {
          "indexed": false,
          "internalType": "uint256",
          "name": "available",
          "type": "uint256"
        }
      ],
      "name": "TokenUnlocked",
      "type": "event"
    },
    {
      "anonymous": false,
      "inputs": [
        {
          "indexed": true,
          "internalType": "address",
          "name": "account",
          "type": "address"
        },
        {
          "indexed": false,
          "internalType": "uint256",
          "name": "value",
          "type": "uint256"
        }
      ],
      "name": "TokenWithdrawn",
      "type": "event"
    },
    {
      "anonymous": false,
      "inputs": [
        {
          "indexed": false,
          "internalType": "uint256",
          "name": "period",
          "type": "uint256"
        }
      ],
      "name": "UnlockingPeriodSet",
      "type": "event"
    },
    {
      "inputs": [
        {
          "internalType": "address",
          "name": "account",
          "type": "address"
        },
        {
          "internalType": "uint256",
          "name": "value",
          "type": "uint256"
        }
      ],
      "name": "decrementNonvotingAccountBalance",
      "outputs": [],
      "stateMutability": "nonpayable",
      "type": "function"
    },
    {
      "inputs": [
        {
          "internalType": "address",
          "name": "account",
          "type": "address"
        }
      ],
      "name": "getAccountNonvotingLockedToken",
      "outputs": [
        {
          "internalType": "uint256",
          "name": "",
          "type": "uint256"
        }
      ],
      "stateMutability": "view",
      "type": "function",
      "constant": true
    },
    {
      "inputs": [
        {
          "internalType": "address",
          "name": "account",
          "type": "address"
        }
      ],
      "name": "getAccountTotalLockedToken",
      "outputs": [
        {
          "internalType": "uint256",
          "name": "",
          "type": "uint256"
        }
      ],
      "stateMutability": "view",
      "type": "function",
      "constant": true
    },
    {
      "inputs": [],
      "name": "getNonvotingLockedToken",
      "outputs": [
        {
          "internalType": "uint256",
          "name": "",
          "type": "uint256"
        }
      ],
      "stateMutability": "view",
      "type": "function",
      "constant": true
    },
    {
      "inputs": [
        {
          "internalType": "address",
          "name": "account",
          "type": "address"
        }
      ],
      "name": "getPendingWithdrawals",
      "outputs": [
        {
          "internalType": "uint256[]",
          "name": "",
          "type": "uint256[]"
        },
        {
          "internalType": "uint256[]",
          "name": "",
          "type": "uint256[]"
        }
      ],
      "stateMutability": "view",
      "type": "function",
      "constant": true
    },
    {
      "inputs": [],
      "name": "getTotalLockedToken",
      "outputs": [
        {
          "internalType": "uint256",
          "name": "",
          "type": "uint256"
        }
      ],
      "stateMutability": "view",
      "type": "function",
      "constant": true
    },
    {
      "inputs": [
        {
          "internalType": "address",
          "name": "account",
          "type": "address"
        }
      ],
      "name": "getTotalPendingWithdrawals",
      "outputs": [
        {
          "internalType": "uint256",
          "name": "",
          "type": "uint256"
        }
      ],
      "stateMutability": "view",
      "type": "function",
      "constant": true
    },
    {
      "inputs": [
        {
          "internalType": "address",
          "name": "account",
          "type": "address"
        },
        {
          "internalType": "uint256",
          "name": "value",
          "type": "uint256"
        }
      ],
      "name": "incrementNonvotingAccountBalance",
      "outputs": [],
      "stateMutability": "nonpayable",
      "type": "function"
    },
    {
      "inputs": [
        {
          "internalType": "uint256",
          "name": "amount",
          "type": "uint256"
        }
      ],
      "name": "lock",
      "outputs": [],
      "stateMutability": "nonpayable",
      "type": "function"
    },
    {
      "inputs": [
        {
          "internalType": "uint256",
          "name": "index",
          "type": "uint256"
        },
        {
          "internalType": "uint256",
          "name": "value",
          "type": "uint256"
        }
      ],
      "name": "relock",
      "outputs": [],
      "stateMutability": "nonpayable",
      "type": "function"
    },
    {
      "inputs": [],
      "name": "token",
      "outputs": [
        {
          "internalType": "contract IERC20",
          "name": "",
          "type": "address"
        }
      ],
      "stateMutability": "view",
      "type": "function",
      "constant": true
    },
    {
      "inputs": [],
      "name": "totalNonvoting",
      "outputs": [
        {
          "internalType": "uint256",
          "name": "",
          "type": "uint256"
        }
      ],
      "stateMutability": "view",
      "type": "function",
      "constant": true
    },
    {
      "inputs": [
        {
          "internalType": "uint256",
          "name": "value",
          "type": "uint256"
        }
      ],
      "name": "unlock",
      "outputs": [],
      "stateMutability": "nonpayable",
      "type": "function"
    },
    {
      "inputs": [],
      "name": "unlockingPeriod",
      "outputs": [
        {
          "internalType": "uint256",
          "name": "",
          "type": "uint256"
        }
      ],
      "stateMutability": "view",
      "type": "function",
      "constant": true
    },
    {
      "inputs": [
        {
          "internalType": "uint256",
          "name": "index",
          "type": "uint256"
        }
      ],
      "name": "withdraw",
      "outputs": [],
      "stateMutability": "nonpayable",
      "type": "function"
    }
  ],
  "bytecode": "0x60806040523480156200001157600080fd5b5060405162001c4e38038062001c4e833981810160405281019062000037919062000171565b8181600160008190555081600460006101000a81548173ffffffffffffffffffffffffffffffffffffffff021916908373ffffffffffffffffffffffffffffffffffffffff160217905550806003819055507fd9274a7c98edc7c66931fc71872764091e7023fe3867358f8504d4c21b161fc581604051620000ba9190620001c9565b60405180910390a150505050620001e6565b600080fd5b600073ffffffffffffffffffffffffffffffffffffffff82169050919050565b6000620000fe82620000d1565b9050919050565b6200011081620000f1565b81146200011c57600080fd5b50565b600081519050620001308162000105565b92915050565b6000819050919050565b6200014b8162000136565b81146200015757600080fd5b50565b6000815190506200016b8162000140565b92915050565b600080604083850312156200018b576200018a620000cc565b5b60006200019b858286016200011f565b9250506020620001ae858286016200015a565b9150509250929050565b620001c38162000136565b82525050565b6000602082019050620001e06000830184620001b8565b92915050565b611a5880620001f66000396000f3fe608060405234801561001057600080fd5b50600436106100f55760003560e01c80637d36fdc911610097578063c1867f6d11610066578063c1867f6d14610270578063dd4670641461028e578063f340c0d0146102aa578063fc0c546a146102db576100f5565b80637d36fdc9146101c45780639f60f149146101f4578063b2fb30cb14610224578063b6e1e49d14610240576100f5565b80632e1a7d4d116100d35780632e1a7d4d146101525780635631eb491461016e5780636198e3391461018c5780636edf77a5146101a8576100f5565b806316af320e146100fa57806318a4ff8c1461011857806320637d8e14610134575b600080fd5b6101026102f9565b60405161010f91906111d6565b60405180910390f35b610132600480360381019061012d9190611280565b610303565b005b61013c610311565b60405161014991906111d6565b60405180910390f35b61016c600480360381019061016791906112c0565b610317565b005b610176610651565b60405161018391906111d6565b60405180910390f35b6101a660048036038101906101a191906112c0565b610656565b005b6101c260048036038101906101bd9190611280565b6107e7565b005b6101de60048036038101906101d991906112ed565b6107f5565b6040516101eb91906111d6565b60405180910390f35b61020e600480360381019061020991906112ed565b610841565b60405161021b91906111d6565b60405180910390f35b61023e6004803603810190610239919061131a565b610892565b005b61025a600480360381019061025591906112ed565b610a7f565b60405161026791906111d6565b60405180910390f35b610278610b9b565b60405161028591906111d6565b60405180910390f35b6102a860048036038101906102a391906112c0565b610ba1565b005b6102c460048036038101906102bf91906112ed565b610dd5565b6040516102d2929190611418565b60405180910390f35b6102e3610fbf565b6040516102f091906114ae565b60405180910390f35b6000600254905090565b61030d8282610fe5565b5050565b60035481565b6002600054141561035d576040517f08c379a000000000000000000000000000000000000000000000000000000000815260040161035490611526565b60405180910390fd5b60026000819055506000600160003373ffffffffffffffffffffffffffffffffffffffff1673ffffffffffffffffffffffffffffffffffffffff1681526020019081526020016000209050806001018054905082106103f1576040517f08c379a00000000000000000000000000000000000000000000000000000000081526004016103e890611592565b60405180910390fd5b6000816001018381548110610409576104086115b2565b5b906000526020600020906002020190508060010154421015610460576040517f08c379a00000000000000000000000000000000000000000000000000000000081526004016104579061162d565b60405180910390fd5b600081600001549050610476836001018561109f565b600460009054906101000a900473ffffffffffffffffffffffffffffffffffffffff1673ffffffffffffffffffffffffffffffffffffffff166370a08231306040518263ffffffff1660e01b81526004016104d1919061165c565b602060405180830381865afa1580156104ee573d6000803e3d6000fd5b505050506040513d601f19601f82011682018060405250810190610512919061168c565b811115610554576040517f08c379a000000000000000000000000000000000000000000000000000000000815260040161054b90611705565b60405180910390fd5b600460009054906101000a900473ffffffffffffffffffffffffffffffffffffffff1673ffffffffffffffffffffffffffffffffffffffff1663a9059cbb33836040518363ffffffff1660e01b81526004016105b1929190611725565b6020604051808303816000875af11580156105d0573d6000803e3d6000fd5b505050506040513d601f19601f820116820180604052508101906105f49190611786565b503373ffffffffffffffffffffffffffffffffffffffff167fa2bd9fcfcdba69f52bcd9a520846ad4bd685b187483f53efc42d035b2ddebff08260405161063b91906111d6565b60405180910390a2505050600160008190555050565b600090565b6002600054141561069c576040517f08c379a000000000000000000000000000000000000000000000000000000000815260040161069390611526565b60405180910390fd5b60026000819055506000600160003373ffffffffffffffffffffffffffffffffffffffff1673ffffffffffffffffffffffffffffffffffffffff1681526020019081526020016000209050610702826106f433610841565b6110d790919063ffffffff16565b6000111561070f57600080fd5b6107193383610fe5565b6000610730600354426110ed90919063ffffffff16565b9050816001016040518060400160405280858152602001838152509080600181540180825580915050600190039060005260206000209060020201600090919091909150600082015181600001556020820151816001015550503373ffffffffffffffffffffffffffffffffffffffff167f6257d77b7eaf282a68ca9b51c3de34795eeba4216930c28d45a255c3cec8f41384836040516107d29291906117b3565b60405180910390a25050600160008190555050565b6107f18282611103565b5050565b6000600160008373ffffffffffffffffffffffffffffffffffffffff1673ffffffffffffffffffffffffffffffffffffffff168152602001908152602001600020600001549050919050565b600080600160008473ffffffffffffffffffffffffffffffffffffffff1673ffffffffffffffffffffffffffffffffffffffff16815260200190815260200160002060000154905080915050919050565b600260005414156108d8576040517f08c379a00000000000000000000000000000000000000000000000000000000081526004016108cf90611526565b60405180910390fd5b60026000819055506000600160003373ffffffffffffffffffffffffffffffffffffffff1673ffffffffffffffffffffffffffffffffffffffff16815260200190815260200160002090508060010180549050831061096c576040517f08c379a000000000000000000000000000000000000000000000000000000000815260040161096390611592565b60405180910390fd5b6000816001018481548110610984576109836115b2565b5b9060005260206000209060020201905080600001548311156109db576040517f08c379a00000000000000000000000000000000000000000000000000000000081526004016109d29061184e565b60405180910390fd5b80600001548314156109f9576109f4826001018561109f565b610a19565b610a108382600001546110d790919063ffffffff16565b81600001819055505b610a233384611103565b3373ffffffffffffffffffffffffffffffffffffffff167f908a9c5a3a4cf0a935c0f1540a5cf2f4737a58553fe304590b5a69066e3c6c6f84604051610a6991906111d6565b60405180910390a2505060016000819055505050565b600080600090506000600160008573ffffffffffffffffffffffffffffffffffffffff1673ffffffffffffffffffffffffffffffffffffffff168152602001908152602001600020600101805480602002602001604051908101604052809291908181526020016000905b82821015610b3057838290600052602060002090600202016040518060400160405290816000820154815260200160018201548152505081526020019060010190610aea565b50505050905060005b8151811015610b9057610b73828281518110610b5857610b576115b2565b5b602002602001015160000151846110ed90919063ffffffff16565b9250610b896001826110ed90919063ffffffff16565b9050610b39565b508192505050919050565b60025481565b60026000541415610be7576040517f08c379a0000000000000000000000000000000000000000000000000000000008152600401610bde90611526565b60405180910390fd5b6002600081905550600460009054906101000a900473ffffffffffffffffffffffffffffffffffffffff1673ffffffffffffffffffffffffffffffffffffffff1663dd62ed3e33306040518363ffffffff1660e01b8152600401610c4c92919061186e565b602060405180830381865afa158015610c69573d6000803e3d6000fd5b505050506040513d601f19601f82011682018060405250810190610c8d919061168c565b811115610ccf576040517f08c379a0000000000000000000000000000000000000000000000000000000008152600401610cc6906118e3565b60405180910390fd5b600460009054906101000a900473ffffffffffffffffffffffffffffffffffffffff1673ffffffffffffffffffffffffffffffffffffffff166323b872dd3330846040518463ffffffff1660e01b8152600401610d2e93929190611903565b6020604051808303816000875af1158015610d4d573d6000803e3d6000fd5b505050506040513d601f19601f82011682018060405250810190610d719190611786565b50610d7c3382611103565b3373ffffffffffffffffffffffffffffffffffffffff167ff9626bca62c59d77fa45a204dc096874ee066a5c5e124aa9ce6c438dbdf7387a82604051610dc291906111d6565b60405180910390a2600160008190555050565b6060806000600160008573ffffffffffffffffffffffffffffffffffffffff1673ffffffffffffffffffffffffffffffffffffffff16815260200190815260200160002060010180549050905060008167ffffffffffffffff811115610e3e57610e3d61193a565b5b604051908082528060200260200182016040528015610e6c5781602001602082028036833780820191505090505b50905060008267ffffffffffffffff811115610e8b57610e8a61193a565b5b604051908082528060200260200182016040528015610eb95781602001602082028036833780820191505090505b50905060005b83811015610fb0576000600160008973ffffffffffffffffffffffffffffffffffffffff1673ffffffffffffffffffffffffffffffffffffffff1681526020019081526020016000206001018281548110610f1d57610f1c6115b2565b5b90600052602060002090600202016040518060400160405290816000820154815260200160018201548152505090508060000151848381518110610f6457610f636115b2565b5b6020026020010181815250508060200151838381518110610f8857610f876115b2565b5b60200260200101818152505050610fa96001826110ed90919063ffffffff16565b9050610ebf565b50818194509450505050915091565b600460009054906101000a900473ffffffffffffffffffffffffffffffffffffffff1681565b61103a81600160008573ffffffffffffffffffffffffffffffffffffffff1673ffffffffffffffffffffffffffffffffffffffff168152602001908152602001600020600001546110d790919063ffffffff16565b600160008473ffffffffffffffffffffffffffffffffffffffff1673ffffffffffffffffffffffffffffffffffffffff16815260200190815260200160002060000181905550611095816002546110d790919063ffffffff16565b6002819055505050565b8181815481106110b2576110b16115b2565b5b9060005260206000209060020201600080820160009055600182016000905550505050565b600081836110e59190611998565b905092915050565b600081836110fb91906119cc565b905092915050565b61115881600160008573ffffffffffffffffffffffffffffffffffffffff1673ffffffffffffffffffffffffffffffffffffffff168152602001908152602001600020600001546110ed90919063ffffffff16565b600160008473ffffffffffffffffffffffffffffffffffffffff1673ffffffffffffffffffffffffffffffffffffffff168152602001908152602001600020600001819055506111b3816002546110ed90919063ffffffff16565b6002819055505050565b6000819050919050565b6111d0816111bd565b82525050565b60006020820190506111eb60008301846111c7565b92915050565b600080fd5b600073ffffffffffffffffffffffffffffffffffffffff82169050919050565b6000611221826111f6565b9050919050565b61123181611216565b811461123c57600080fd5b50565b60008135905061124e81611228565b92915050565b61125d816111bd565b811461126857600080fd5b50565b60008135905061127a81611254565b92915050565b60008060408385031215611297576112966111f1565b5b60006112a58582860161123f565b92505060206112b68582860161126b565b9150509250929050565b6000602082840312156112d6576112d56111f1565b5b60006112e48482850161126b565b91505092915050565b600060208284031215611303576113026111f1565b5b60006113118482850161123f565b91505092915050565b60008060408385031215611331576113306111f1565b5b600061133f8582860161126b565b92505060206113508582860161126b565b9150509250929050565b600081519050919050565b600082825260208201905092915050565b6000819050602082019050919050565b61138f816111bd565b82525050565b60006113a18383611386565b60208301905092915050565b6000602082019050919050565b60006113c58261135a565b6113cf8185611365565b93506113da83611376565b8060005b8381101561140b5781516113f28882611395565b97506113fd836113ad565b9250506001810190506113de565b5085935050505092915050565b6000604082019050818103600083015261143281856113ba565b9050818103602083015261144681846113ba565b90509392505050565b6000819050919050565b600061147461146f61146a846111f6565b61144f565b6111f6565b9050919050565b600061148682611459565b9050919050565b60006114988261147b565b9050919050565b6114a88161148d565b82525050565b60006020820190506114c3600083018461149f565b92915050565b600082825260208201905092915050565b7f5265656e7472616e637947756172643a207265656e7472616e742063616c6c00600082015250565b6000611510601f836114c9565b915061151b826114da565b602082019050919050565b6000602082019050818103600083015261153f81611503565b9050919050565b7f4261642070656e64696e67207769746864726177616c20696e64657800000000600082015250565b600061157c601c836114c9565b915061158782611546565b602082019050919050565b600060208201905081810360008301526115ab8161156f565b9050919050565b7f4e487b7100000000000000000000000000000000000000000000000000000000600052603260045260246000fd5b7f50656e64696e67207769746864726177616c206e6f7420617661696c61626c65600082015250565b60006116176020836114c9565b9150611622826115e1565b602082019050919050565b600060208201905081810360008301526116468161160a565b9050919050565b61165681611216565b82525050565b6000602082019050611671600083018461164d565b92915050565b60008151905061168681611254565b92915050565b6000602082840312156116a2576116a16111f1565b5b60006116b084828501611677565b91505092915050565b7f496e636f6e73697374656e742062616c616e6365000000000000000000000000600082015250565b60006116ef6014836114c9565b91506116fa826116b9565b602082019050919050565b6000602082019050818103600083015261171e816116e2565b9050919050565b600060408201905061173a600083018561164d565b61174760208301846111c7565b9392505050565b60008115159050919050565b6117638161174e565b811461176e57600080fd5b50565b6000815190506117808161175a565b92915050565b60006020828403121561179c5761179b6111f1565b5b60006117aa84828501611771565b91505092915050565b60006040820190506117c860008301856111c7565b6117d560208301846111c7565b9392505050565b7f5265717565737465642076616c7565206c6172676572207468616e2070656e6460008201527f696e672076616c75650000000000000000000000000000000000000000000000602082015250565b60006118386029836114c9565b9150611843826117dc565b604082019050919050565b600060208201905081810360008301526118678161182b565b9050919050565b6000604082019050611883600083018561164d565b611890602083018461164d565b9392505050565b7f696e73756666696369656e7420616c6c6f77616e636500000000000000000000600082015250565b60006118cd6016836114c9565b91506118d882611897565b602082019050919050565b600060208201905081810360008301526118fc816118c0565b9050919050565b6000606082019050611918600083018661164d565b611925602083018561164d565b61193260408301846111c7565b949350505050565b7f4e487b7100000000000000000000000000000000000000000000000000000000600052604160045260246000fd5b7f4e487b7100000000000000000000000000000000000000000000000000000000600052601160045260246000fd5b60006119a3826111bd565b91506119ae836111bd565b9250828210156119c1576119c0611969565b5b828203905092915050565b60006119d7826111bd565b91506119e2836111bd565b9250827fffffffffffffffffffffffffffffffffffffffffffffffffffffffffffffffff03821115611a1757611a16611969565b5b82820190509291505056fea2646970667358221220b9c9fef36f222cdd7ee8b48db2764279a2bd68d4faa1ea03746f6fa552c510a064736f6c634300080a0033",
  "immutableReferences": {},
  "source": "pragma solidity ^0.8.0;\n\nimport \"./LockedToken.sol\";\n\ncontract LockedCGLD is LockedToken {\n    constructor(address tokenAddress, uint256 unlockingPeriod) LockedToken(tokenAddress, unlockingPeriod) {}\n}",
  "sourcePath": "/mnt/d/Projects/code/make-crypto-mobile-hackathon/proof_of_deposit/codebase/contracts/contracts/LockedCGLD.sol",
  "compiler": {
    "name": "solc",
    "version": "0.8.10+commit.fc410830.Emscripten.clang"
  },
  "schemaVersion": "3.4.1",
  "updatedAt": "2021-11-19T22:46:07.899Z",
  "networkType": "ethereum",
  "devdoc": {
    "kind": "dev",
    "methods": {
      "decrementNonvotingAccountBalance(address,uint256)": {
        "details": "Can only be called by the registered \"Election\" smart contract.",
        "params": {
          "account": "The account whose non-voting balance should be decremented.",
          "value": "The amount by which to decrement."
        }
      },
      "getAccountNonvotingLockedToken(address)": {
        "params": {
          "account": "The account."
        },
        "returns": {
          "_0": "The total amount of non-voting locked token for an account."
        }
      },
      "getAccountTotalLockedToken(address)": {
        "params": {
          "account": "The account."
        },
        "returns": {
          "_0": "The total amount of locked token for an account."
        }
      },
      "getNonvotingLockedToken()": {
        "returns": {
          "_0": "The total amount of locked token not being used to vote in elections."
        }
      },
      "getPendingWithdrawals(address)": {
        "params": {
          "account": "The address of the account."
        },
        "returns": {
          "_0": "The value and timestamp for each pending withdrawal."
        }
      },
      "getTotalLockedToken()": {
        "returns": {
          "_0": "The total amount of locked token in the system."
        }
      },
      "getTotalPendingWithdrawals(address)": {
        "params": {
          "account": "The address of the account."
        },
        "returns": {
          "_0": "Total amount to withdraw."
        }
      },
      "incrementNonvotingAccountBalance(address,uint256)": {
        "details": "Can only be called by the registered Election smart contract.",
        "params": {
          "account": "The account whose non-voting balance should be incremented.",
          "value": "The amount by which to increment."
        }
      },
      "relock(uint256,uint256)": {
        "params": {
          "index": "The index of the pending withdrawal to relock from.",
          "value": "The value to relock from the specified pending withdrawal."
        }
      },
      "unlock(uint256)": {
        "params": {
          "value": "The amount of token to unlock."
        }
      },
      "withdraw(uint256)": {
        "params": {
          "index": "The index of the pending withdrawal to withdraw."
        }
      }
    },
    "version": 1
  },
  "userdoc": {
    "kind": "user",
    "methods": {
      "decrementNonvotingAccountBalance(address,uint256)": {
        "notice": "Decrements the non-voting balance for an account."
      },
      "getAccountNonvotingLockedToken(address)": {
        "notice": "Returns the total amount of non-voting locked token for an account."
      },
      "getAccountTotalLockedToken(address)": {
        "notice": "Returns the total amount of locked token for an account."
      },
      "getNonvotingLockedToken()": {
        "notice": "Returns the total amount of locked token not being used to vote in elections."
      },
      "getPendingWithdrawals(address)": {
        "notice": "Returns the pending withdrawals from unlocked token for an account."
      },
      "getTotalLockedToken()": {
        "notice": "Returns the total amount of locked token in the system. Note that this does not include   token that has been unlocked but not yet withdrawn."
      },
      "getTotalPendingWithdrawals(address)": {
        "notice": "Returns the total amount to withdraw from unlocked token for an account."
      },
      "incrementNonvotingAccountBalance(address,uint256)": {
        "notice": "Increments the non-voting balance for an account."
      },
      "lock(uint256)": {
        "notice": "Locks token to be used for voting."
      },
      "relock(uint256,uint256)": {
        "notice": "Relocks token that has been unlocked but not withdrawn."
      },
      "unlock(uint256)": {
        "notice": "Unlocks token that becomes withdrawable after the unlocking period."
      },
      "withdraw(uint256)": {
        "notice": "Withdraws token that has been unlocked after the unlocking period has passed."
      }
    },
    "version": 1
  }
}